{
  "contractName": "Bounty",
  "abi": [
    {
      "constant": true,
      "inputs": [],
      "name": "creator",
      "outputs": [
        {
          "name": "",
          "type": "address"
        }
      ],
      "payable": false,
      "stateMutability": "view",
      "type": "function"
    },
    {
      "constant": true,
      "inputs": [],
      "name": "name",
      "outputs": [
        {
          "name": "",
          "type": "string"
        }
      ],
      "payable": false,
      "stateMutability": "view",
      "type": "function"
    },
    {
      "constant": true,
      "inputs": [],
      "name": "status",
      "outputs": [
        {
          "name": "",
          "type": "uint8"
        }
      ],
      "payable": false,
      "stateMutability": "view",
      "type": "function"
    },
    {
      "constant": true,
      "inputs": [
        {
          "name": "",
          "type": "uint256"
        }
      ],
      "name": "participants",
      "outputs": [
        {
          "name": "",
          "type": "address"
        }
      ],
      "payable": false,
      "stateMutability": "view",
      "type": "function"
    },
    {
      "constant": true,
      "inputs": [
        {
          "name": "",
          "type": "address"
        }
      ],
      "name": "participantsMap",
      "outputs": [
        {
          "name": "",
          "type": "bool"
        }
      ],
      "payable": false,
      "stateMutability": "view",
      "type": "function"
    },
    {
      "constant": true,
      "inputs": [
        {
          "name": "",
          "type": "uint256"
        }
      ],
      "name": "winners",
      "outputs": [
        {
          "name": "",
          "type": "address"
        }
      ],
      "payable": false,
      "stateMutability": "view",
      "type": "function"
    },
    {
      "constant": true,
      "inputs": [],
      "name": "marketplace",
      "outputs": [
        {
          "name": "",
          "type": "address"
        }
      ],
      "payable": false,
      "stateMutability": "view",
      "type": "function"
    },
    {
      "constant": true,
      "inputs": [],
      "name": "factory",
      "outputs": [
        {
          "name": "",
          "type": "address"
        }
      ],
      "payable": false,
      "stateMutability": "view",
      "type": "function"
    },
    {
      "constant": true,
      "inputs": [],
      "name": "createdAt",
      "outputs": [
        {
          "name": "",
          "type": "uint256"
        }
      ],
      "payable": false,
      "stateMutability": "view",
      "type": "function"
    },
    {
      "constant": true,
      "inputs": [
        {
          "name": "",
          "type": "uint256"
        }
      ],
      "name": "prizes",
      "outputs": [
        {
          "name": "",
          "type": "uint256"
        }
      ],
      "payable": false,
      "stateMutability": "view",
      "type": "function"
    },
    {
      "constant": true,
      "inputs": [],
      "name": "token",
      "outputs": [
        {
          "name": "",
          "type": "address"
        }
      ],
      "payable": false,
      "stateMutability": "view",
      "type": "function"
    },
    {
      "inputs": [
        {
          "name": "tokenAddress",
          "type": "address"
        },
        {
          "name": "creatorAddress",
          "type": "address"
        },
        {
          "name": "initName",
          "type": "string"
        },
        {
          "name": "initPrizes",
          "type": "uint256[]"
        },
        {
          "name": "mpAddress",
          "type": "address"
        }
      ],
      "payable": false,
      "stateMutability": "nonpayable",
      "type": "constructor"
    },
    {
      "constant": true,
      "inputs": [],
      "name": "isFunded",
      "outputs": [
        {
          "name": "success",
          "type": "bool"
        }
      ],
      "payable": false,
      "stateMutability": "view",
      "type": "function"
    },
    {
      "constant": true,
      "inputs": [],
      "name": "getData",
      "outputs": [
        {
          "name": "retName",
          "type": "string"
        },
        {
          "name": "retPrizes",
          "type": "uint256[]"
        },
        {
          "name": "retWinenrs",
          "type": "address[]"
        },
        {
          "name": "retParticipants",
          "type": "address[]"
        },
        {
          "name": "retStatus",
          "type": "uint8"
        },
        {
          "name": "retCreator",
          "type": "address"
        },
        {
          "name": "createdTime",
          "type": "uint256"
        }
      ],
      "payable": false,
      "stateMutability": "view",
      "type": "function"
    },
    {
      "constant": false,
      "inputs": [
        {
          "name": "participantAddress",
          "type": "address"
        }
      ],
      "name": "join",
      "outputs": [
        {
          "name": "success",
          "type": "bool"
        }
      ],
      "payable": false,
      "stateMutability": "nonpayable",
      "type": "function"
    },
    {
      "constant": false,
      "inputs": [
        {
          "name": "_creator",
          "type": "address"
        }
      ],
      "name": "changeCreator",
      "outputs": [],
      "payable": false,
      "stateMutability": "nonpayable",
      "type": "function"
    },
    {
      "constant": false,
      "inputs": [
        {
          "name": "newName",
          "type": "string"
        },
        {
          "name": "newPrizes",
          "type": "uint256[]"
        }
      ],
      "name": "updateBounty",
      "outputs": [],
      "payable": false,
      "stateMutability": "nonpayable",
      "type": "function"
    },
    {
      "constant": false,
      "inputs": [
        {
          "name": "newName",
          "type": "string"
        }
      ],
      "name": "updateName",
      "outputs": [
        {
          "name": "success",
          "type": "bool"
        }
      ],
      "payable": false,
      "stateMutability": "nonpayable",
      "type": "function"
    },
    {
      "constant": false,
      "inputs": [
        {
          "name": "newName",
          "type": "string"
        }
      ],
      "name": "forceUpdateName",
      "outputs": [
        {
          "name": "success",
          "type": "bool"
        }
      ],
      "payable": false,
      "stateMutability": "nonpayable",
      "type": "function"
    },
    {
      "constant": false,
      "inputs": [
        {
          "name": "newPrizes",
          "type": "uint256[]"
        }
      ],
      "name": "updatePrizes",
      "outputs": [
        {
          "name": "success",
          "type": "bool"
        }
      ],
      "payable": false,
      "stateMutability": "nonpayable",
      "type": "function"
    },
    {
      "constant": false,
      "inputs": [
        {
          "name": "newPrizes",
          "type": "uint256[]"
        }
      ],
      "name": "forceUpdatePrizes",
      "outputs": [
        {
          "name": "success",
          "type": "bool"
        }
      ],
      "payable": false,
      "stateMutability": "nonpayable",
      "type": "function"
    },
    {
      "constant": false,
      "inputs": [
        {
          "name": "newStatus",
          "type": "uint8"
        }
      ],
      "name": "forceSetStatus",
      "outputs": [
        {
          "name": "success",
          "type": "bool"
        }
      ],
      "payable": false,
      "stateMutability": "nonpayable",
      "type": "function"
    },
    {
      "constant": false,
      "inputs": [],
      "name": "startEnrollment",
      "outputs": [],
      "payable": false,
      "stateMutability": "nonpayable",
      "type": "function"
    },
    {
      "constant": false,
      "inputs": [],
      "name": "stopEnrollment",
      "outputs": [],
      "payable": false,
      "stateMutability": "nonpayable",
      "type": "function"
    },
    {
      "constant": false,
      "inputs": [],
      "name": "startBounty",
      "outputs": [],
      "payable": false,
      "stateMutability": "nonpayable",
      "type": "function"
    },
    {
      "constant": false,
      "inputs": [],
      "name": "stopBounty",
      "outputs": [],
      "payable": false,
      "stateMutability": "nonpayable",
      "type": "function"
    },
    {
      "constant": false,
      "inputs": [
        {
          "name": "newWinners",
          "type": "address[]"
        }
      ],
      "name": "updateWinners",
      "outputs": [],
      "payable": false,
      "stateMutability": "nonpayable",
      "type": "function"
    },
    {
      "constant": false,
      "inputs": [
        {
          "name": "newWinners",
          "type": "address[]"
        }
      ],
      "name": "forceUpdateWinners",
      "outputs": [],
      "payable": false,
      "stateMutability": "nonpayable",
      "type": "function"
    },
    {
      "constant": false,
      "inputs": [],
      "name": "payoutWinners",
      "outputs": [],
      "payable": false,
      "stateMutability": "nonpayable",
      "type": "function"
    },
    {
      "constant": true,
      "inputs": [],
      "name": "getTotalPrize",
      "outputs": [
        {
          "name": "total",
          "type": "uint256"
        }
      ],
      "payable": false,
      "stateMutability": "view",
      "type": "function"
    },
    {
      "constant": false,
      "inputs": [
        {
          "name": "receiver",
          "type": "address"
        },
        {
          "name": "amount",
          "type": "uint256"
        }
      ],
      "name": "transferToken",
      "outputs": [],
      "payable": false,
      "stateMutability": "nonpayable",
      "type": "function"
    }
  ],
  "bytecode": "0x60806040523480156200001157600080fd5b5060405162002cb238038062002cb28339810180604052810190808051906020019092919080519060200190929190805182019291906020018051820192919060200180519060200190929190505050336000806101000a81548173ffffffffffffffffffffffffffffffffffffffff021916908373ffffffffffffffffffffffffffffffffffffffff16021790555080600360006101000a81548173ffffffffffffffffffffffffffffffffffffffff021916908373ffffffffffffffffffffffffffffffffffffffff16021790555083600160006101000a81548173ffffffffffffffffffffffffffffffffffffffff021916908373ffffffffffffffffffffffffffffffffffffffff16021790555084600260006101000a81548173ffffffffffffffffffffffffffffffffffffffff021916908373ffffffffffffffffffffffffffffffffffffffff16021790555081600590805190602001906200017c929190620001cd565b506000600960006101000a81548160ff021916908360088111156200019d57fe5b02179055508260049080519060200190620001ba9291906200021f565b50426006819055505050505050620002ce565b8280548282559060005260206000209081019282156200020c579160200282015b828111156200020b578251825591602001919060010190620001ee565b5b5090506200021b9190620002a6565b5090565b828054600181600116156101000203166002900490600052602060002090601f016020900481019282601f106200026257805160ff191683800117855562000293565b8280016001018555821562000293579182015b828111156200029257825182559160200191906001019062000275565b5b509050620002a29190620002a6565b5090565b620002cb91905b80821115620002c7576000816000905550600101620002ad565b5090565b90565b6129d480620002de6000396000f300608060405260043610610180576000357c0100000000000000000000000000000000000000000000000000000000900463ffffffff16806302d05d3f1461018557806306fdde03146101dc5780631072cbea1461026c578063158ef412146102b9578063200d2ed21461033a578063240dfd6e1461037357806328ffe6c81461038a5780632c4d89b4146103e557806335c1d3491461042d5780633bc5de301461049a5780633edaf264146106515780634a81dc0f14610668578063537a0c62146106e65780635c2ee9081461074157806374580e2f146107a75780637c654303146107ea5780638044c67e1461081957806384da92a7146108975780639f7c94aa14610918578063a22fb98b1461092f578063a2fb1175146109db578063abc8c7af14610a48578063adeaa85114610a9f578063c45a015514610aca578063c8b2677314610b21578063cf09e0d014610b38578063eccb3a4f14610b63578063f803bef014610ba4578063fadcf13c14610c0a578063fc0c546a14610c21575b600080fd5b34801561019157600080fd5b5061019a610c78565b604051808273ffffffffffffffffffffffffffffffffffffffff1673ffffffffffffffffffffffffffffffffffffffff16815260200191505060405180910390f35b3480156101e857600080fd5b506101f1610c9e565b6040518080602001828103825283818151815260200191508051906020019080838360005b83811015610231578082015181840152602081019050610216565b50505050905090810190601f16801561025e5780820380516001836020036101000a031916815260200191505b509250505060405180910390f35b34801561027857600080fd5b506102b7600480360381019080803573ffffffffffffffffffffffffffffffffffffffff16906020019092919080359060200190929190505050610d3c565b005b3480156102c557600080fd5b50610320600480360381019080803590602001908201803590602001908080601f0160208091040260200160405190810160405280939291908181526020018383808284378201915050505050509192919290505050610f59565b604051808215151515815260200191505060405180910390f35b34801561034657600080fd5b5061034f611083565b6040518082600881111561035f57fe5b60ff16815260200191505060405180910390f35b34801561037f57600080fd5b50610388611096565b005b34801561039657600080fd5b506103cb600480360381019080803573ffffffffffffffffffffffffffffffffffffffff1690602001909291905050506110d7565b604051808215151515815260200191505060405180910390f35b3480156103f157600080fd5b50610413600480360381019080803560ff169060200190929190505050611296565b604051808215151515815260200191505060405180910390f35b34801561043957600080fd5b50610458600480360381019080803590602001909291905050506113cc565b604051808273ffffffffffffffffffffffffffffffffffffffff1673ffffffffffffffffffffffffffffffffffffffff16815260200191505060405180910390f35b3480156104a657600080fd5b506104af61140a565b60405180806020018060200180602001806020018860088111156104cf57fe5b60ff1681526020018773ffffffffffffffffffffffffffffffffffffffff1673ffffffffffffffffffffffffffffffffffffffff16815260200186815260200185810385528c818151815260200191508051906020019080838360005b8381101561054757808201518184015260208101905061052c565b50505050905090810190601f1680156105745780820380516001836020036101000a031916815260200191505b5085810384528b818151815260200191508051906020019060200280838360005b838110156105b0578082015181840152602081019050610595565b5050505090500185810383528a818151815260200191508051906020019060200280838360005b838110156105f25780820151818401526020810190506105d7565b50505050905001858103825289818151815260200191508051906020019060200280838360005b83811015610634578082015181840152602081019050610619565b505050509050019b50505050505050505050505060405180910390f35b34801561065d57600080fd5b50610666611668565b005b34801561067457600080fd5b506106cc600480360381019080803590602001908201803590602001908080602002602001604051908101604052809392919081815260200183836020028082843782019150505050505091929192905050506116a9565b604051808215151515815260200191505060405180910390f35b3480156106f257600080fd5b50610727600480360381019080803573ffffffffffffffffffffffffffffffffffffffff1690602001909291905050506117d3565b604051808215151515815260200191505060405180910390f35b34801561074d57600080fd5b506107a5600480360381019080803590602001908201803590602001908080602002602001604051908101604052809392919081815260200183836020028082843782019150505050505091929192905050506117f3565b005b3480156107b357600080fd5b506107e8600480360381019080803573ffffffffffffffffffffffffffffffffffffffff169060200190929190505050611a4d565b005b3480156107f657600080fd5b506107ff611b9a565b604051808215151515815260200191505060405180910390f35b34801561082557600080fd5b5061087d60048036038101908080359060200190820180359060200190808060200260200160405190810160405280939291908181526020018383602002808284378201915050505050509192919290505050611cb5565b604051808215151515815260200191505060405180910390f35b3480156108a357600080fd5b506108fe600480360381019080803590602001908201803590602001908080601f0160208091040260200160405190810160405280939291908181526020018383808284378201915050505050509192919290505050611e6b565b604051808215151515815260200191505060405180910390f35b34801561092457600080fd5b5061092d611fed565b005b34801561093b57600080fd5b506109d9600480360381019080803590602001908201803590602001908080601f01602080910402602001604051908101604052809392919081815260200183838082843782019150505050505091929192908035906020019082018035906020019080806020026020016040519081016040528093929190818152602001838360200280828437820191505050505050919291929050505061233e565b005b3480156109e757600080fd5b50610a066004803603810190808035906020019092919050505061236a565b604051808273ffffffffffffffffffffffffffffffffffffffff1673ffffffffffffffffffffffffffffffffffffffff16815260200191505060405180910390f35b348015610a5457600080fd5b50610a5d6123a8565b604051808273ffffffffffffffffffffffffffffffffffffffff1673ffffffffffffffffffffffffffffffffffffffff16815260200191505060405180910390f35b348015610aab57600080fd5b50610ab46123ce565b6040518082815260200191505060405180910390f35b348015610ad657600080fd5b50610adf61241b565b604051808273ffffffffffffffffffffffffffffffffffffffff1673ffffffffffffffffffffffffffffffffffffffff16815260200191505060405180910390f35b348015610b2d57600080fd5b50610b36612440565b005b348015610b4457600080fd5b50610b4d6124a8565b6040518082815260200191505060405180910390f35b348015610b6f57600080fd5b50610b8e600480360381019080803590602001909291905050506124ae565b6040518082815260200191505060405180910390f35b348015610bb057600080fd5b50610c08600480360381019080803590602001908201803590602001908080602002602001604051908101604052809392919081815260200183836020028082843782019150505050505091929192905050506124d1565b005b348015610c1657600080fd5b50610c1f6125f4565b005b348015610c2d57600080fd5b50610c36612635565b604051808273ffffffffffffffffffffffffffffffffffffffff1673ffffffffffffffffffffffffffffffffffffffff16815260200191505060405180910390f35b600160009054906101000a900473ffffffffffffffffffffffffffffffffffffffff1681565b60048054600181600116156101000203166002900480601f016020809104026020016040519081016040528092919081815260200182805460018160011615610100020316600290048015610d345780601f10610d0957610100808354040283529160200191610d34565b820191906000526020600020905b815481529060010190602001808311610d1757829003601f168201915b505050505081565b600080600360009054906101000a900473ffffffffffffffffffffffffffffffffffffffff1691508173ffffffffffffffffffffffffffffffffffffffff1663fa6f3936336040518263ffffffff167c0100000000000000000000000000000000000000000000000000000000028152600401808273ffffffffffffffffffffffffffffffffffffffff1673ffffffffffffffffffffffffffffffffffffffff168152602001915050602060405180830381600087803b158015610dff57600080fd5b505af1158015610e13573d6000803e3d6000fd5b505050506040513d6020811015610e2957600080fd5b81019080805190602001909291905050501515610e4557600080fd5b600260009054906101000a900473ffffffffffffffffffffffffffffffffffffffff1690508073ffffffffffffffffffffffffffffffffffffffff1663a9059cbb85856040518363ffffffff167c0100000000000000000000000000000000000000000000000000000000028152600401808373ffffffffffffffffffffffffffffffffffffffff1673ffffffffffffffffffffffffffffffffffffffff16815260200182815260200192505050602060405180830381600087803b158015610f0d57600080fd5b505af1158015610f21573d6000803e3d6000fd5b505050506040513d6020811015610f3757600080fd5b81019080805190602001909291905050501515610f5357600080fd5b50505050565b600080600360009054906101000a900473ffffffffffffffffffffffffffffffffffffffff1690508073ffffffffffffffffffffffffffffffffffffffff1663fa6f3936336040518263ffffffff167c0100000000000000000000000000000000000000000000000000000000028152600401808273ffffffffffffffffffffffffffffffffffffffff1673ffffffffffffffffffffffffffffffffffffffff168152602001915050602060405180830381600087803b15801561101c57600080fd5b505af1158015611030573d6000803e3d6000fd5b505050506040513d602081101561104657600080fd5b8101908080519060200190929190505050151561106257600080fd5b82600490805190602001906110789291906127e9565b506001915050919050565b600960009054906101000a900460ff1681565b600160088111156110a357fe5b600960009054906101000a900460ff1660088111156110be57fe5b1415156110ca57600080fd5b6110d4600261265b565b50565b60008060009054906101000a900473ffffffffffffffffffffffffffffffffffffffff1673ffffffffffffffffffffffffffffffffffffffff163373ffffffffffffffffffffffffffffffffffffffff1614151561113457600080fd5b6001600881111561114157fe5b600960009054906101000a900460ff16600881111561115c57fe5b14151561116c5760009050611291565b60011515600a60008473ffffffffffffffffffffffffffffffffffffffff1673ffffffffffffffffffffffffffffffffffffffff16815260200190815260200160002060009054906101000a900460ff16151514156111ce5760009050611291565b60088290806001815401808255809150509060018203906000526020600020016000909192909190916101000a81548173ffffffffffffffffffffffffffffffffffffffff021916908373ffffffffffffffffffffffffffffffffffffffff160217905550506001600a60008473ffffffffffffffffffffffffffffffffffffffff1673ffffffffffffffffffffffffffffffffffffffff16815260200190815260200160002060006101000a81548160ff021916908315150217905550600190505b919050565b600080600360009054906101000a900473ffffffffffffffffffffffffffffffffffffffff1690508073ffffffffffffffffffffffffffffffffffffffff1663fa6f3936336040518263ffffffff167c0100000000000000000000000000000000000000000000000000000000028152600401808273ffffffffffffffffffffffffffffffffffffffff1673ffffffffffffffffffffffffffffffffffffffff168152602001915050602060405180830381600087803b15801561135957600080fd5b505af115801561136d573d6000803e3d6000fd5b505050506040513d602081101561138357600080fd5b8101908080519060200190929190505050151561139f57600080fd5b82600960006101000a81548160ff021916908360088111156113bd57fe5b02179055506001915050919050565b6008818154811015156113db57fe5b906000526020600020016000915054906101000a900473ffffffffffffffffffffffffffffffffffffffff1681565b60608060608060008060006004600560076008600960009054906101000a900460ff16600160009054906101000a900473ffffffffffffffffffffffffffffffffffffffff16600654868054600181600116156101000203166002900480601f0160208091040260200160405190810160405280929190818152602001828054600181600116156101000203166002900480156114e85780601f106114bd576101008083540402835291602001916114e8565b820191906000526020600020905b8154815290600101906020018083116114cb57829003601f168201915b505050505096508580548060200260200160405190810160405280929190818152602001828054801561153a57602002820191906000526020600020905b815481526020019060010190808311611526575b50505050509550848054806020026020016040519081016040528092919081815260200182805480156115c257602002820191906000526020600020905b8160009054906101000a900473ffffffffffffffffffffffffffffffffffffffff1673ffffffffffffffffffffffffffffffffffffffff1681526020019060010190808311611578575b505050505094508380548060200260200160405190810160405280929190818152602001828054801561164a57602002820191906000526020600020905b8160009054906101000a900473ffffffffffffffffffffffffffffffffffffffff1673ffffffffffffffffffffffffffffffffffffffff1681526020019060010190808311611600575b50505050509350965096509650965096509650965090919293949596565b6003600881111561167557fe5b600960009054906101000a900460ff16600881111561169057fe5b14151561169c57600080fd5b6116a6600461265b565b50565b600080600360009054906101000a900473ffffffffffffffffffffffffffffffffffffffff1690508073ffffffffffffffffffffffffffffffffffffffff1663fa6f3936336040518263ffffffff167c0100000000000000000000000000000000000000000000000000000000028152600401808273ffffffffffffffffffffffffffffffffffffffff1673ffffffffffffffffffffffffffffffffffffffff168152602001915050602060405180830381600087803b15801561176c57600080fd5b505af1158015611780573d6000803e3d6000fd5b505050506040513d602081101561179657600080fd5b810190808051906020019092919050505015156117b257600080fd5b82600590805190602001906117c8929190612869565b506001915050919050565b600a6020528060005260406000206000915054906101000a900460ff1681565b600080600360009054906101000a900473ffffffffffffffffffffffffffffffffffffffff1691508173ffffffffffffffffffffffffffffffffffffffff1663fa6f3936336040518263ffffffff167c0100000000000000000000000000000000000000000000000000000000028152600401808273ffffffffffffffffffffffffffffffffffffffff1673ffffffffffffffffffffffffffffffffffffffff168152602001915050602060405180830381600087803b1580156118b657600080fd5b505af11580156118ca573d6000803e3d6000fd5b505050506040513d60208110156118e057600080fd5b8101908080519060200190929190505050806119495750600160009054906101000a900473ffffffffffffffffffffffffffffffffffffffff1673ffffffffffffffffffffffffffffffffffffffff163373ffffffffffffffffffffffffffffffffffffffff16145b151561195457600080fd5b6004600881111561196157fe5b600960009054906101000a900460ff16600881111561197c57fe5b14151561198857600080fd5b600580549050835114151561199c57600080fd5b600090505b8251811015611a2657600a600084838151811015156119bc57fe5b9060200190602002015173ffffffffffffffffffffffffffffffffffffffff1673ffffffffffffffffffffffffffffffffffffffff16815260200190815260200160002060009054906101000a900460ff161515611a1957600080fd5b80806001019150506119a1565b8260079080519060200190611a3c9291906128b6565b50611a47600561265b565b50505050565b6000600360009054906101000a900473ffffffffffffffffffffffffffffffffffffffff1690508073ffffffffffffffffffffffffffffffffffffffff1663fa6f3936336040518263ffffffff167c0100000000000000000000000000000000000000000000000000000000028152600401808273ffffffffffffffffffffffffffffffffffffffff1673ffffffffffffffffffffffffffffffffffffffff168152602001915050602060405180830381600087803b158015611b0f57600080fd5b505af1158015611b23573d6000803e3d6000fd5b505050506040513d6020811015611b3957600080fd5b81019080805190602001909291905050501515611b5557600080fd5b81600160006101000a81548173ffffffffffffffffffffffffffffffffffffffff021916908373ffffffffffffffffffffffffffffffffffffffff1602179055505050565b600080600260009054906101000a900473ffffffffffffffffffffffffffffffffffffffff1690508073ffffffffffffffffffffffffffffffffffffffff166370a08231306040518263ffffffff167c0100000000000000000000000000000000000000000000000000000000028152600401808273ffffffffffffffffffffffffffffffffffffffff1673ffffffffffffffffffffffffffffffffffffffff168152602001915050602060405180830381600087803b158015611c5d57600080fd5b505af1158015611c71573d6000803e3d6000fd5b505050506040513d6020811015611c8757600080fd5b8101908080519060200190929190505050611ca06123ce565b11151515611cad57600080fd5b600191505090565b600080600360009054906101000a900473ffffffffffffffffffffffffffffffffffffffff1690508073ffffffffffffffffffffffffffffffffffffffff1663fa6f3936336040518263ffffffff167c0100000000000000000000000000000000000000000000000000000000028152600401808273ffffffffffffffffffffffffffffffffffffffff1673ffffffffffffffffffffffffffffffffffffffff168152602001915050602060405180830381600087803b158015611d7857600080fd5b505af1158015611d8c573d6000803e3d6000fd5b505050506040513d6020811015611da257600080fd5b810190808051906020019092919050505080611e0b5750600160009054906101000a900473ffffffffffffffffffffffffffffffffffffffff1673ffffffffffffffffffffffffffffffffffffffff163373ffffffffffffffffffffffffffffffffffffffff16145b1515611e1657600080fd5b60006008811115611e2357fe5b600960009054906101000a900460ff166008811115611e3e57fe5b141515611e4a57600080fd5b8260059080519060200190611e60929190612869565b506001915050919050565b600080600360009054906101000a900473ffffffffffffffffffffffffffffffffffffffff1690508073ffffffffffffffffffffffffffffffffffffffff1663fa6f3936336040518263ffffffff167c0100000000000000000000000000000000000000000000000000000000028152600401808273ffffffffffffffffffffffffffffffffffffffff1673ffffffffffffffffffffffffffffffffffffffff168152602001915050602060405180830381600087803b158015611f2e57600080fd5b505af1158015611f42573d6000803e3d6000fd5b505050506040513d6020811015611f5857600080fd5b810190808051906020019092919050505080611fc15750600160009054906101000a900473ffffffffffffffffffffffffffffffffffffffff1673ffffffffffffffffffffffffffffffffffffffff163373ffffffffffffffffffffffffffffffffffffffff16145b1515611fcc57600080fd5b8260049080519060200190611fe29291906127e9565b506001915050919050565b6000806000600260009054906101000a900473ffffffffffffffffffffffffffffffffffffffff169250600360009054906101000a900473ffffffffffffffffffffffffffffffffffffffff1691508173ffffffffffffffffffffffffffffffffffffffff1663fa6f3936336040518263ffffffff167c0100000000000000000000000000000000000000000000000000000000028152600401808273ffffffffffffffffffffffffffffffffffffffff1673ffffffffffffffffffffffffffffffffffffffff168152602001915050602060405180830381600087803b1580156120d757600080fd5b505af11580156120eb573d6000803e3d6000fd5b505050506040513d602081101561210157600080fd5b81019080805190602001909291905050508061216a5750600160009054906101000a900473ffffffffffffffffffffffffffffffffffffffff1673ffffffffffffffffffffffffffffffffffffffff163373ffffffffffffffffffffffffffffffffffffffff16145b151561217557600080fd5b61217d611b9a565b151561218857600080fd5b6005805490506007805490501415156121a057600080fd5b600560088111156121ad57fe5b600960009054906101000a900460ff1660088111156121c857fe5b1415156121d457600080fd5b600090505b60058054905081101561232e578273ffffffffffffffffffffffffffffffffffffffff1663a9059cbb60078381548110151561221157fe5b9060005260206000200160009054906101000a900473ffffffffffffffffffffffffffffffffffffffff1660058481548110151561224b57fe5b90600052602060002001546040518363ffffffff167c0100000000000000000000000000000000000000000000000000000000028152600401808373ffffffffffffffffffffffffffffffffffffffff1673ffffffffffffffffffffffffffffffffffffffff16815260200182815260200192505050602060405180830381600087803b1580156122db57600080fd5b505af11580156122ef573d6000803e3d6000fd5b505050506040513d602081101561230557600080fd5b8101908080519060200190929190505050151561232157600080fd5b80806001019150506121d9565b612338600661265b565b50505050565b61234782611e6b565b151561235257600080fd5b61235b81611cb5565b151561236657600080fd5b5050565b60078181548110151561237957fe5b906000526020600020016000915054906101000a900473ffffffffffffffffffffffffffffffffffffffff1681565b600360009054906101000a900473ffffffffffffffffffffffffffffffffffffffff1681565b6000806000809150600090505b600580549050811015612413576005818154811015156123f757fe5b90600052602060002001548201915080806001019150506123db565b819250505090565b6000809054906101000a900473ffffffffffffffffffffffffffffffffffffffff1681565b6000600881111561244d57fe5b600960009054906101000a900460ff16600881111561246857fe5b14151561247457600080fd5b600060058054905011151561248857600080fd5b612490611b9a565b151561249b57600080fd5b6124a5600161265b565b50565b60065481565b6005818154811015156124bd57fe5b906000526020600020016000915090505481565b6000600360009054906101000a900473ffffffffffffffffffffffffffffffffffffffff1690508073ffffffffffffffffffffffffffffffffffffffff1663fa6f3936336040518263ffffffff167c0100000000000000000000000000000000000000000000000000000000028152600401808273ffffffffffffffffffffffffffffffffffffffff1673ffffffffffffffffffffffffffffffffffffffff168152602001915050602060405180830381600087803b15801561259357600080fd5b505af11580156125a7573d6000803e3d6000fd5b505050506040513d60208110156125bd57600080fd5b810190808051906020019092919050505015156125d957600080fd5b81600790805190602001906125ef9291906128b6565b505050565b6002600881111561260157fe5b600960009054906101000a900460ff16600881111561261c57fe5b14151561262857600080fd5b612632600361265b565b50565b600260009054906101000a900473ffffffffffffffffffffffffffffffffffffffff1681565b600080600360009054906101000a900473ffffffffffffffffffffffffffffffffffffffff1690508073ffffffffffffffffffffffffffffffffffffffff1663fa6f3936336040518263ffffffff167c0100000000000000000000000000000000000000000000000000000000028152600401808273ffffffffffffffffffffffffffffffffffffffff1673ffffffffffffffffffffffffffffffffffffffff168152602001915050602060405180830381600087803b15801561271e57600080fd5b505af1158015612732573d6000803e3d6000fd5b505050506040513d602081101561274857600080fd5b8101908080519060200190929190505050806127b15750600160009054906101000a900473ffffffffffffffffffffffffffffffffffffffff1673ffffffffffffffffffffffffffffffffffffffff163373ffffffffffffffffffffffffffffffffffffffff16145b15156127bc57600080fd5b82600960006101000a81548160ff021916908360088111156127da57fe5b02179055506001915050919050565b828054600181600116156101000203166002900490600052602060002090601f016020900481019282601f1061282a57805160ff1916838001178555612858565b82800160010185558215612858579182015b8281111561285757825182559160200191906001019061283c565b5b5090506128659190612940565b5090565b8280548282559060005260206000209081019282156128a5579160200282015b828111156128a4578251825591602001919060010190612889565b5b5090506128b29190612940565b5090565b82805482825590600052602060002090810192821561292f579160200282015b8281111561292e5782518260006101000a81548173ffffffffffffffffffffffffffffffffffffffff021916908373ffffffffffffffffffffffffffffffffffffffff160217905550916020019190600101906128d6565b5b50905061293c9190612965565b5090565b61296291905b8082111561295e576000816000905550600101612946565b5090565b90565b6129a591905b808211156129a157600081816101000a81549073ffffffffffffffffffffffffffffffffffffffff02191690555060010161296b565b5090565b905600a165627a7a72305820508c48d4f1e71f630e2bb60f2418c64deaa7259fcfacc3b4fa2f7216665ad4370029",
  "source": "pragma solidity ^0.4.22;\n\ncontract DmlMarketplace {\n    // Public Variables\n    mapping(address => bool) public moderators;\n    address public token;\n    \n    // bountyFactory address\n    DmlBountyFactory public bountyFactory;\n    \n    \n    mapping(address => uint) public totals;\n    mapping(address => mapping(address => bool)) public hasPurchased;\n    address[] public algos;\n    mapping(address => address[]) public algosByCreator;\n    \n    constructor() public {\n        moderators[msg.sender] = true;\n    }\n    \n    function isReady() view public returns (bool success) {\n        if (token == address(0) || bountyFactory == address(0)) {\n            return false;\n        }\n\n        return true;\n    }\n\n    function isModerator(address modAddress) view public returns (bool success) {\n        return moderators[modAddress];\n    }\n\n    function addModerator(address newModerator) public {\n        require(isModerator(msg.sender));\n        moderators[newModerator] = true;\n    }\n\n    function removeModerator(address mod) public {\n        require(isModerator(msg.sender));\n        moderators[mod] = false;\n    }\n\n    function addAlgo(uint price) public {\n        require(isReady());\n        Algo a = new Algo(price, msg.sender, token, address(this));\n        algos.push(a);\n        algosByCreator[msg.sender].push(a);\n    }\n\n    function getAllAlgos() view public returns (address[] _algos) {\n        return algos;\n    }\n\n    function getAlgosByCreator(address creatorAddress) view public returns (address[] _algos) {\n        return algosByCreator[creatorAddress];\n    }\n\n    function init (address newTokenAddress) public returns (bool success) {\n        require(isModerator(msg.sender));\n        token = newTokenAddress;\n        DmlBountyFactory f = new DmlBountyFactory(token);\n        bountyFactory = f;\n        return true;\n    }\n\n    function setBountyFactory(address factoryAddress) public {\n        require(isModerator(msg.sender));\n        DmlBountyFactory f = DmlBountyFactory(factoryAddress);\n        bountyFactory = f;\n    }\n    \n    function buy(address algoAddress, uint value) public returns (bool success) {\n        address sender = msg.sender;\n        \n        require(!hasPurchased[msg.sender][algoAddress]);\n\n        ERC20Interface c = ERC20Interface(token);\n        \n        require(c.transferFrom(sender, algoAddress, value));\n\n        hasPurchased[sender][algoAddress] = true;\n        \n        if (totals[algoAddress] < 1) {\n            totals[algoAddress] = 1;\n        } else {\n            totals[algoAddress]++;\n        }\n        \n        return true;\n    }\n    \n    function transferToken (address receiver, uint amount) public {\n        require(isModerator(msg.sender));\n        \n        ERC20Interface c = ERC20Interface(token);\n        require(c.transfer(receiver, amount));\n    }\n}\n\ncontract DmlBountyFactory {\n    address public marketplace;\n    address public token;\n    address[] public allBountyAddresses;\n    mapping(address => address[]) public bountyAddressByCreator;\n    mapping(address => address[]) public bountyAddressByParticipant;\n    \n    constructor(address tokenAddress) public {\n        marketplace = msg.sender;\n        token = tokenAddress;\n    }\n\n    function getAllBounties() view public returns (address[] bounties) {\n        return allBountyAddresses;\n    }\n\n    function getBountiesByCreator(address creatorAddress) view public returns (address[] bounties) {\n        return bountyAddressByCreator[creatorAddress];\n    }\n\n    function getBountiesByParticipant(address participantAddress) view public returns (address[] bounties) {\n        return bountyAddressByParticipant[participantAddress];\n    }\n    \n    function createBounty(string name, uint[] prizes) public {\n        address creator = msg.sender;\n        address newBounty = new Bounty(token, creator, name, prizes, marketplace);\n        allBountyAddresses.push(newBounty);\n        bountyAddressByCreator[msg.sender].push(newBounty);\n    }\n    \n    function joinBounty(address bountyAddress) public {\n        Bounty b = Bounty(bountyAddress);\n        \n        require(b.join(msg.sender));\n        \n        bountyAddressByParticipant[msg.sender].push(bountyAddress);\n    }\n}\n\ncontract Bounty {\n    // contract addresses\n    address public factory;\n    \n    // public constants\n    address public creator;\n    address public token;\n    address public marketplace;\n\n    // state variables\n    string public name;\n    uint[] public prizes;\n    uint public createdAt;\n    address[] public winners;\n    address[] public participants;\n    Status public status;\n    mapping(address => bool) public participantsMap;\n\n    enum Status {\n        Initialized,\n        EnrollmentStart,\n        EnrollmentEnd,\n        BountyStart,\n        BountyEnd,\n        EvaluationEnd,\n        Completed,\n        Paused,\n        Cancelled\n    }\n    \n    constructor(\n        address tokenAddress,\n        address creatorAddress,\n        string initName,\n        uint[] initPrizes,\n        address mpAddress\n    ) public {\n        factory = msg.sender;\n        marketplace = mpAddress;\n        creator = creatorAddress;\n        token = tokenAddress;\n        prizes = initPrizes;\n        status = Status.Initialized;\n        name = initName;\n        createdAt = now;\n    }\n    \n    function isFunded() public view returns (bool success) {\n        ERC20Interface c = ERC20Interface(token);\n        require(getTotalPrize() <= c.balanceOf(address(this)));\n        return true;\n    }\n\n    function getData() public view returns (string retName, uint[] retPrizes, address[] retWinenrs, address[] retParticipants, Status retStatus, address retCreator, uint createdTime) {\n        return (name, prizes, winners, participants, status, creator, createdAt);\n    }\n    \n    function join(address participantAddress) public returns (bool success) {\n        require(msg.sender == factory);\n\n        if (status != Status.EnrollmentStart) {\n            return false;\n        }\n        \n        if (participantsMap[participantAddress] == true) {\n            return false;\n        }\n        \n        participants.push(participantAddress);\n        participantsMap[participantAddress] = true;\n        \n        return true;\n    }\n\n    function changeCreator(address _creator) public {\n        DmlMarketplace dmp = DmlMarketplace(marketplace);\n        require(dmp.isModerator(msg.sender));\n        creator = _creator;\n    } \n\n    function updateBounty(string newName, uint[] newPrizes) public {\n        require(updateName(newName));\n        require(updatePrizes(newPrizes));\n    }\n\n    function updateName(string newName) public returns (bool success) {\n        DmlMarketplace dmp = DmlMarketplace(marketplace);\n        require(dmp.isModerator(msg.sender) || msg.sender == creator);\n        name = newName;\n        return true;\n    }\n\n    function forceUpdateName(string newName) public returns (bool success) {\n        DmlMarketplace dmp = DmlMarketplace(marketplace);\n        require(dmp.isModerator(msg.sender));\n        name = newName;\n        return true;\n    }\n    \n    function updatePrizes(uint[] newPrizes) public returns (bool success) {\n        DmlMarketplace dmp = DmlMarketplace(marketplace);\n        require(dmp.isModerator(msg.sender) || msg.sender == creator);\n        require(status == Status.Initialized);\n        prizes = newPrizes;\n        return true;\n    }\n\n    function forceUpdatePrizes(uint[] newPrizes) public returns (bool success) {\n        DmlMarketplace dmp = DmlMarketplace(marketplace);\n        require(dmp.isModerator(msg.sender));\n        prizes = newPrizes;\n        return true;\n    }\n\n    function setStatus(Status newStatus) private returns (bool success) {\n        DmlMarketplace dmp = DmlMarketplace(marketplace);\n        require(dmp.isModerator(msg.sender) || msg.sender == creator);\n        status = newStatus;\n        return true;\n    }\n\n    function forceSetStatus(Status newStatus) public returns (bool success) {\n        DmlMarketplace dmp = DmlMarketplace(marketplace);\n        require(dmp.isModerator(msg.sender));\n        status = newStatus;\n        return true;\n    }\n    \n    function startEnrollment() public {\n        require(status == Status.Initialized);\n        require(prizes.length > 0);\n        require(isFunded());\n        setStatus(Status.EnrollmentStart);\n    }\n    \n    function stopEnrollment() public {\n        require(status == Status.EnrollmentStart);\n        setStatus(Status.EnrollmentEnd);\n    }\n    \n    function startBounty() public {\n        require(status == Status.EnrollmentEnd);\n        setStatus(Status.BountyStart);\n    }\n    \n    function stopBounty() public {\n        require(status == Status.BountyStart);\n        setStatus(Status.BountyEnd);\n    }\n\n    function updateWinners(address[] newWinners) public {\n        DmlMarketplace dmp = DmlMarketplace(marketplace);\n        require(dmp.isModerator(msg.sender) || msg.sender == creator);\n        require(status == Status.BountyEnd);\n        require(newWinners.length == prizes.length);\n\n        for (uint i = 0; i < newWinners.length; i++) {\n            require(participantsMap[newWinners[i]]);\n        }\n\n        winners = newWinners;\n        setStatus(Status.EvaluationEnd);\n    }\n\n    function forceUpdateWinners(address[] newWinners) public {\n        DmlMarketplace dmp = DmlMarketplace(marketplace);\n        require(dmp.isModerator(msg.sender));\n\n        winners = newWinners;\n    }\n\n    function payoutWinners() public {\n        ERC20Interface c = ERC20Interface(token);\n        DmlMarketplace dmp = DmlMarketplace(marketplace);\n\n        require(dmp.isModerator(msg.sender) || msg.sender == creator);\n        require(isFunded());\n        require(winners.length == prizes.length);\n        require(status == Status.EvaluationEnd);\n\n        for (uint i = 0; i < prizes.length; i++) {\n            require(c.transfer(winners[i], prizes[i]));\n        }\n        \n        setStatus(Status.Completed);\n    }\n    \n    function getTotalPrize() public constant returns (uint total) {\n        uint t = 0;\n        for (uint i = 0; i < prizes.length; i++) {\n            t = t + prizes[i];\n        }\n        return t;\n    }\n\n    function transferToken (address receiver, uint amount) public {\n        DmlMarketplace dmp = DmlMarketplace(marketplace);\n        require(dmp.isModerator(msg.sender));\n        ERC20Interface c = ERC20Interface(token);\n        require(c.transfer(receiver, amount));\n    }\n}\n\ncontract Algo {\n    // public constants\n    address public creator;\n    address public token;\n    address public marketplace;\n    uint public price;\n    Status public status;\n\n    enum Status {\n        PendingReview,\n        Inactive,\n        Active\n    }\n\n    constructor(\n        uint _price,\n        address _creator,\n        address _token,\n        address _marketplace\n    ) public {\n        price = _price;\n        marketplace = _marketplace;\n        token = _token;\n        creator = _creator;\n    }\n\n    function updatePrice(uint _price) public {\n        require(isModOrCreator());\n        price = _price;\n    }\n\n    function setActive() public {\n        require(isModOrCreator());\n        require(status == Status.Inactive);\n        status = Status.Active;\n    }\n\n    function setInactive() public {\n        require(isModOrCreator());\n        require(status == Status.Active);\n        status = Status.Inactive;\n    }\n\n    function approveAlgo() public {\n        require(isMod());\n        status = Status.Active;\n    }\n\n    function setPendingReview() public {\n        require(isMod());\n        status = Status.PendingReview; \n    }\n\n    function changeCreator(address _creator) public {\n        DmlMarketplace dmp = DmlMarketplace(marketplace);\n        require(dmp.isModerator(msg.sender));\n        creator = _creator;\n    } \n\n    function getData() view public returns (uint _price, Status _status) {\n        return (price, status);\n    }\n\n    function isMod() view private returns (bool success) {\n        DmlMarketplace dmp = DmlMarketplace(marketplace);\n        return (dmp.isModerator(msg.sender));\n    }\n\n    function isModOrCreator() view private returns (bool success) {\n        return (isMod() || msg.sender == creator);\n    }\n\n    function transferToken (address receiver, uint amount) public {\n        require(isModOrCreator());\n        ERC20Interface c = ERC20Interface(token);\n        require(c.transfer(receiver, amount));\n    }\n}\n\ncontract ERC20Interface {\n    function totalSupply() public constant returns (uint);\n    function balanceOf(address tokenOwner) public constant returns (uint balance);\n    function allowance(address tokenOwner, address spender) public constant returns (uint remaining);\n    function transfer(address to, uint tokens) public returns (bool success);\n    function approve(address spender, uint tokens) public returns (bool success);\n    function transferFrom(address from, address to, uint tokens) public returns (bool success);\n}",
  "sourcePath": "/Users/chikeichan/Projects/dml/marketplace-prototype/src/solidity/contracts/DmlMarketplace.sol",
  "compiler": {
    "name": "solc",
    "version": "0.4.22+commit.4cb486ee.Emscripten.clang"
  },
  "schemaVersion": "2.0.0",
  "updatedAt": "2018-05-29T04:07:57.600Z"
}