{
  "contractName": "Bounty",
  "abi": [
    {
      "constant": true,
      "inputs": [],
      "name": "creator",
      "outputs": [
        {
          "name": "",
          "type": "address"
        }
      ],
      "payable": false,
      "stateMutability": "view",
      "type": "function"
    },
    {
      "constant": true,
      "inputs": [],
      "name": "status",
      "outputs": [
        {
          "name": "",
          "type": "uint8"
        }
      ],
      "payable": false,
      "stateMutability": "view",
      "type": "function"
    },
    {
      "constant": true,
      "inputs": [
        {
          "name": "",
          "type": "uint256"
        }
      ],
      "name": "participants",
      "outputs": [
        {
          "name": "",
          "type": "address"
        }
      ],
      "payable": false,
      "stateMutability": "view",
      "type": "function"
    },
    {
      "constant": true,
      "inputs": [],
      "name": "moderator",
      "outputs": [
        {
          "name": "",
          "type": "address"
        }
      ],
      "payable": false,
      "stateMutability": "view",
      "type": "function"
    },
    {
      "constant": true,
      "inputs": [
        {
          "name": "",
          "type": "address"
        }
      ],
      "name": "participantsMap",
      "outputs": [
        {
          "name": "",
          "type": "bool"
        }
      ],
      "payable": false,
      "stateMutability": "view",
      "type": "function"
    },
    {
      "constant": true,
      "inputs": [
        {
          "name": "",
          "type": "uint256"
        }
      ],
      "name": "winners",
      "outputs": [
        {
          "name": "",
          "type": "address"
        }
      ],
      "payable": false,
      "stateMutability": "view",
      "type": "function"
    },
    {
      "constant": true,
      "inputs": [],
      "name": "factory",
      "outputs": [
        {
          "name": "",
          "type": "address"
        }
      ],
      "payable": false,
      "stateMutability": "view",
      "type": "function"
    },
    {
      "constant": true,
      "inputs": [
        {
          "name": "",
          "type": "uint256"
        }
      ],
      "name": "prizes",
      "outputs": [
        {
          "name": "",
          "type": "uint256"
        }
      ],
      "payable": false,
      "stateMutability": "view",
      "type": "function"
    },
    {
      "constant": true,
      "inputs": [],
      "name": "token",
      "outputs": [
        {
          "name": "",
          "type": "address"
        }
      ],
      "payable": false,
      "stateMutability": "view",
      "type": "function"
    },
    {
      "inputs": [
        {
          "name": "tokenAddress",
          "type": "address"
        },
        {
          "name": "creatorAddress",
          "type": "address"
        },
        {
          "name": "ownerAddress",
          "type": "address"
        },
        {
          "name": "initPrizes",
          "type": "uint256[]"
        }
      ],
      "payable": false,
      "stateMutability": "nonpayable",
      "type": "constructor"
    },
    {
      "constant": true,
      "inputs": [],
      "name": "isFunded",
      "outputs": [
        {
          "name": "success",
          "type": "bool"
        }
      ],
      "payable": false,
      "stateMutability": "view",
      "type": "function"
    },
    {
      "constant": true,
      "inputs": [],
      "name": "getData",
      "outputs": [
        {
          "name": "retPrizes",
          "type": "uint256[]"
        },
        {
          "name": "retWinenrs",
          "type": "address[]"
        },
        {
          "name": "retParticipants",
          "type": "address[]"
        },
        {
          "name": "retStatus",
          "type": "uint8"
        }
      ],
      "payable": false,
      "stateMutability": "view",
      "type": "function"
    },
    {
      "constant": false,
      "inputs": [
        {
          "name": "participantAddress",
          "type": "address"
        }
      ],
      "name": "join",
      "outputs": [
        {
          "name": "success",
          "type": "bool"
        }
      ],
      "payable": false,
      "stateMutability": "nonpayable",
      "type": "function"
    },
    {
      "constant": false,
      "inputs": [
        {
          "name": "newPrizes",
          "type": "uint256[]"
        }
      ],
      "name": "updatePrizes",
      "outputs": [],
      "payable": false,
      "stateMutability": "nonpayable",
      "type": "function"
    },
    {
      "constant": false,
      "inputs": [],
      "name": "startEnrollment",
      "outputs": [],
      "payable": false,
      "stateMutability": "nonpayable",
      "type": "function"
    },
    {
      "constant": false,
      "inputs": [],
      "name": "stopEnrollment",
      "outputs": [],
      "payable": false,
      "stateMutability": "nonpayable",
      "type": "function"
    },
    {
      "constant": false,
      "inputs": [],
      "name": "startBounty",
      "outputs": [],
      "payable": false,
      "stateMutability": "nonpayable",
      "type": "function"
    },
    {
      "constant": false,
      "inputs": [],
      "name": "stopBounty",
      "outputs": [],
      "payable": false,
      "stateMutability": "nonpayable",
      "type": "function"
    },
    {
      "constant": false,
      "inputs": [
        {
          "name": "newWinners",
          "type": "address[]"
        }
      ],
      "name": "updateWinners",
      "outputs": [],
      "payable": false,
      "stateMutability": "nonpayable",
      "type": "function"
    },
    {
      "constant": false,
      "inputs": [],
      "name": "payoutWinners",
      "outputs": [],
      "payable": false,
      "stateMutability": "nonpayable",
      "type": "function"
    },
    {
      "constant": true,
      "inputs": [],
      "name": "getTotalPrize",
      "outputs": [
        {
          "name": "total",
          "type": "uint256"
        }
      ],
      "payable": false,
      "stateMutability": "view",
      "type": "function"
    },
    {
      "constant": false,
      "inputs": [
        {
          "name": "receiver",
          "type": "address"
        },
        {
          "name": "amount",
          "type": "uint256"
        }
      ],
      "name": "transferToken",
      "outputs": [],
      "payable": false,
      "stateMutability": "nonpayable",
      "type": "function"
    }
  ],
  "bytecode": "0x60806040523480156200001157600080fd5b50604051620018a7380380620018a783398101806040528101908080519060200190929190805190602001909291908051906020019092919080518201929190505050336000806101000a81548173ffffffffffffffffffffffffffffffffffffffff021916908373ffffffffffffffffffffffffffffffffffffffff16021790555082600160006101000a81548173ffffffffffffffffffffffffffffffffffffffff021916908373ffffffffffffffffffffffffffffffffffffffff16021790555081600260006101000a81548173ffffffffffffffffffffffffffffffffffffffff021916908373ffffffffffffffffffffffffffffffffffffffff16021790555083600360006101000a81548173ffffffffffffffffffffffffffffffffffffffff021916908373ffffffffffffffffffffffffffffffffffffffff16021790555080600490805190602001906200016f9291906200019f565b506000600760006101000a81548160ff021916908360078111156200019057fe5b02179055505050505062000219565b828054828255906000526020600020908101928215620001de579160200282015b82811115620001dd578251825591602001919060010190620001c0565b5b509050620001ed9190620001f1565b5090565b6200021691905b8082111562000212576000816000905550600101620001f8565b5090565b90565b61167e80620002296000396000f30060806040526004361061011d576000357c0100000000000000000000000000000000000000000000000000000000900463ffffffff16806302d05d3f146101225780631072cbea14610179578063200d2ed2146101c6578063240dfd6e146101ff57806328ffe6c81461021657806335c1d3491461027157806338743904146102de5780633bc5de30146103355780633edaf26414610446578063537a0c621461045d5780635c2ee908146104b85780637c6543031461051e5780638044c67e1461054d5780639f7c94aa146105b3578063a2fb1175146105ca578063adeaa85114610637578063c45a015514610662578063c8b26773146106b9578063eccb3a4f146106d0578063fadcf13c14610711578063fc0c546a14610728575b600080fd5b34801561012e57600080fd5b5061013761077f565b604051808273ffffffffffffffffffffffffffffffffffffffff1673ffffffffffffffffffffffffffffffffffffffff16815260200191505060405180910390f35b34801561018557600080fd5b506101c4600480360381019080803573ffffffffffffffffffffffffffffffffffffffff169060200190929190803590602001909291905050506107a5565b005b3480156101d257600080fd5b506101db610916565b604051808260078111156101eb57fe5b60ff16815260200191505060405180910390f35b34801561020b57600080fd5b50610214610929565b005b34801561022257600080fd5b50610257600480360381019080803573ffffffffffffffffffffffffffffffffffffffff16906020019092919050505061096a565b604051808215151515815260200191505060405180910390f35b34801561027d57600080fd5b5061029c60048036038101908080359060200190929190505050610ace565b604051808273ffffffffffffffffffffffffffffffffffffffff1673ffffffffffffffffffffffffffffffffffffffff16815260200191505060405180910390f35b3480156102ea57600080fd5b506102f3610b0c565b604051808273ffffffffffffffffffffffffffffffffffffffff1673ffffffffffffffffffffffffffffffffffffffff16815260200191505060405180910390f35b34801561034157600080fd5b5061034a610b32565b6040518080602001806020018060200185600781111561036657fe5b60ff168152602001848103845288818151815260200191508051906020019060200280838360005b838110156103a957808201518184015260208101905061038e565b50505050905001848103835287818151815260200191508051906020019060200280838360005b838110156103eb5780820151818401526020810190506103d0565b50505050905001848103825286818151815260200191508051906020019060200280838360005b8381101561042d578082015181840152602081019050610412565b5050505090500197505050505050505060405180910390f35b34801561045257600080fd5b5061045b610cbf565b005b34801561046957600080fd5b5061049e600480360381019080803573ffffffffffffffffffffffffffffffffffffffff169060200190929190505050610d00565b604051808215151515815260200191505060405180910390f35b3480156104c457600080fd5b5061051c60048036038101908080359060200190820180359060200190808060200260200160405190810160405280939291908181526020018383602002808284378201915050505050509192919290505050610d20565b005b34801561052a57600080fd5b50610533610e36565b604051808215151515815260200191505060405180910390f35b34801561055957600080fd5b506105b160048036038101908080359060200190820180359060200190808060200260200160405190810160405280939291908181526020018383602002808284378201915050505050509192919290505050610f51565b005b3480156105bf57600080fd5b506105c861101f565b005b3480156105d657600080fd5b506105f5600480360381019080803590602001909291905050506112c3565b604051808273ffffffffffffffffffffffffffffffffffffffff1673ffffffffffffffffffffffffffffffffffffffff16815260200191505060405180910390f35b34801561064357600080fd5b5061064c611301565b6040518082815260200191505060405180910390f35b34801561066e57600080fd5b5061067761134e565b604051808273ffffffffffffffffffffffffffffffffffffffff1673ffffffffffffffffffffffffffffffffffffffff16815260200191505060405180910390f35b3480156106c557600080fd5b506106ce611373565b005b3480156106dc57600080fd5b506106fb600480360381019080803590602001909291905050506113a7565b6040518082815260200191505060405180910390f35b34801561071d57600080fd5b506107266113ca565b005b34801561073457600080fd5b5061073d61140b565b604051808273ffffffffffffffffffffffffffffffffffffffff1673ffffffffffffffffffffffffffffffffffffffff16815260200191505060405180910390f35b600160009054906101000a900473ffffffffffffffffffffffffffffffffffffffff1681565b6000600260009054906101000a900473ffffffffffffffffffffffffffffffffffffffff1673ffffffffffffffffffffffffffffffffffffffff163373ffffffffffffffffffffffffffffffffffffffff1614151561080357600080fd5b600360009054906101000a900473ffffffffffffffffffffffffffffffffffffffff1690508073ffffffffffffffffffffffffffffffffffffffff1663a9059cbb84846040518363ffffffff167c0100000000000000000000000000000000000000000000000000000000028152600401808373ffffffffffffffffffffffffffffffffffffffff1673ffffffffffffffffffffffffffffffffffffffff16815260200182815260200192505050602060405180830381600087803b1580156108cb57600080fd5b505af11580156108df573d6000803e3d6000fd5b505050506040513d60208110156108f557600080fd5b8101908080519060200190929190505050151561091157600080fd5b505050565b600760009054906101000a900460ff1681565b6002600781111561093657fe5b600760009054906101000a900460ff16600781111561095157fe5b14151561095d57600080fd5b6109676003611431565b50565b60006002600781111561097957fe5b600760009054906101000a900460ff16600781111561099457fe5b1415156109a45760009050610ac9565b60011515600860008473ffffffffffffffffffffffffffffffffffffffff1673ffffffffffffffffffffffffffffffffffffffff16815260200190815260200160002060009054906101000a900460ff1615151415610a065760009050610ac9565b60068290806001815401808255809150509060018203906000526020600020016000909192909190916101000a81548173ffffffffffffffffffffffffffffffffffffffff021916908373ffffffffffffffffffffffffffffffffffffffff160217905550506001600860008473ffffffffffffffffffffffffffffffffffffffff1673ffffffffffffffffffffffffffffffffffffffff16815260200190815260200160002060006101000a81548160ff021916908315150217905550600190505b919050565b600681815481101515610add57fe5b906000526020600020016000915054906101000a900473ffffffffffffffffffffffffffffffffffffffff1681565b600260009054906101000a900473ffffffffffffffffffffffffffffffffffffffff1681565b60608060606000600460056006600760009054906101000a900460ff1683805480602002602001604051908101604052809291908181526020018280548015610b9a57602002820191906000526020600020905b815481526020019060010190808311610b86575b5050505050935082805480602002602001604051908101604052809291908181526020018280548015610c2257602002820191906000526020600020905b8160009054906101000a900473ffffffffffffffffffffffffffffffffffffffff1673ffffffffffffffffffffffffffffffffffffffff1681526020019060010190808311610bd8575b5050505050925081805480602002602001604051908101604052809291908181526020018280548015610caa57602002820191906000526020600020905b8160009054906101000a900473ffffffffffffffffffffffffffffffffffffffff1673ffffffffffffffffffffffffffffffffffffffff1681526020019060010190808311610c60575b50505050509150935093509350935090919293565b60046007811115610ccc57fe5b600760009054906101000a900460ff166007811115610ce757fe5b141515610cf357600080fd5b610cfd6005611431565b50565b60086020528060005260406000206000915054906101000a900460ff1681565b600260009054906101000a900473ffffffffffffffffffffffffffffffffffffffff1673ffffffffffffffffffffffffffffffffffffffff163373ffffffffffffffffffffffffffffffffffffffff161480610dc95750600160009054906101000a900473ffffffffffffffffffffffffffffffffffffffff1673ffffffffffffffffffffffffffffffffffffffff163373ffffffffffffffffffffffffffffffffffffffff16145b1515610dd457600080fd5b60056007811115610de157fe5b600760009054906101000a900460ff166007811115610dfc57fe5b141515610e0857600080fd5b6004805490508151141515610e1c57600080fd5b8060059080519060200190610e32929190611513565b5050565b600080600360009054906101000a900473ffffffffffffffffffffffffffffffffffffffff1690508073ffffffffffffffffffffffffffffffffffffffff166370a08231306040518263ffffffff167c0100000000000000000000000000000000000000000000000000000000028152600401808273ffffffffffffffffffffffffffffffffffffffff1673ffffffffffffffffffffffffffffffffffffffff168152602001915050602060405180830381600087803b158015610ef957600080fd5b505af1158015610f0d573d6000803e3d6000fd5b505050506040513d6020811015610f2357600080fd5b8101908080519060200190929190505050610f3c611301565b11151515610f4957600080fd5b600191505090565b600260009054906101000a900473ffffffffffffffffffffffffffffffffffffffff1673ffffffffffffffffffffffffffffffffffffffff163373ffffffffffffffffffffffffffffffffffffffff161480610ffa5750600160009054906101000a900473ffffffffffffffffffffffffffffffffffffffff1673ffffffffffffffffffffffffffffffffffffffff163373ffffffffffffffffffffffffffffffffffffffff16145b151561100557600080fd5b806004908051906020019061101b92919061159d565b5050565b600080600260009054906101000a900473ffffffffffffffffffffffffffffffffffffffff1673ffffffffffffffffffffffffffffffffffffffff163373ffffffffffffffffffffffffffffffffffffffff1614806110cb5750600160009054906101000a900473ffffffffffffffffffffffffffffffffffffffff1673ffffffffffffffffffffffffffffffffffffffff163373ffffffffffffffffffffffffffffffffffffffff16145b15156110d657600080fd5b600360009054906101000a900473ffffffffffffffffffffffffffffffffffffffff169150611103610e36565b151561110e57600080fd5b60048054905060058054905014151561112657600080fd5b6005600781111561113357fe5b600760009054906101000a900460ff16600781111561114e57fe5b14151561115a57600080fd5b600090505b6004805490508110156112b4578173ffffffffffffffffffffffffffffffffffffffff1663a9059cbb60058381548110151561119757fe5b9060005260206000200160009054906101000a900473ffffffffffffffffffffffffffffffffffffffff166004848154811015156111d157fe5b90600052602060002001546040518363ffffffff167c0100000000000000000000000000000000000000000000000000000000028152600401808373ffffffffffffffffffffffffffffffffffffffff1673ffffffffffffffffffffffffffffffffffffffff16815260200182815260200192505050602060405180830381600087803b15801561126157600080fd5b505af1158015611275573d6000803e3d6000fd5b505050506040513d602081101561128b57600080fd5b810190808051906020019092919050505015156112a757600080fd5b808060010191505061115f565b6112be6006611431565b505050565b6005818154811015156112d257fe5b906000526020600020016000915054906101000a900473ffffffffffffffffffffffffffffffffffffffff1681565b6000806000809150600090505b6004805490508110156113465760048181548110151561132a57fe5b906000526020600020015482019150808060010191505061130e565b819250505090565b6000809054906101000a900473ffffffffffffffffffffffffffffffffffffffff1681565b600060048054905011151561138757600080fd5b61138f610e36565b151561139a57600080fd5b6113a46002611431565b50565b6004818154811015156113b657fe5b906000526020600020016000915090505481565b600260078111156113d757fe5b600760009054906101000a900460ff1660078111156113f257fe5b1415156113fe57600080fd5b6114086004611431565b50565b600360009054906101000a900473ffffffffffffffffffffffffffffffffffffffff1681565b6000600260009054906101000a900473ffffffffffffffffffffffffffffffffffffffff1673ffffffffffffffffffffffffffffffffffffffff163373ffffffffffffffffffffffffffffffffffffffff1614806114dc5750600160009054906101000a900473ffffffffffffffffffffffffffffffffffffffff1673ffffffffffffffffffffffffffffffffffffffff163373ffffffffffffffffffffffffffffffffffffffff16145b15156114e757600080fd5b81600760006101000a81548160ff0219169083600781111561150557fe5b021790555060019050919050565b82805482825590600052602060002090810192821561158c579160200282015b8281111561158b5782518260006101000a81548173ffffffffffffffffffffffffffffffffffffffff021916908373ffffffffffffffffffffffffffffffffffffffff16021790555091602001919060010190611533565b5b50905061159991906115ea565b5090565b8280548282559060005260206000209081019282156115d9579160200282015b828111156115d85782518255916020019190600101906115bd565b5b5090506115e6919061162d565b5090565b61162a91905b8082111561162657600081816101000a81549073ffffffffffffffffffffffffffffffffffffffff0219169055506001016115f0565b5090565b90565b61164f91905b8082111561164b576000816000905550600101611633565b5090565b905600a165627a7a7230582006b13e4f2c6d76929d36793a75c98380f4c5f1307e9111280bbd7f1a04d0c4b80029",
  "source": "pragma solidity ^0.4.22;\n\ncontract DmlMarketplace {\n    // Public Variables\n    address public owner;\n    address public token;\n    \n    // bountyFactory address\n    DmlBountyFactory public bountyFactory;\n    \n    \n    mapping(bytes32 => uint) public totals;\n    mapping(address => mapping(bytes32 => bool)) public hasPurchased;\n    \n    constructor() public {\n        owner = msg.sender;\n    }\n    \n    function isReady() view public returns (bool success) {\n        if (token == address(0) || bountyFactory == address(0)) {\n            return false;\n        }\n\n        return true;\n    }\n    \n    function init (address newTokenAddress) public returns (bool success) {\n        require(msg.sender == owner);\n        token = newTokenAddress;\n        DmlBountyFactory f = new DmlBountyFactory(owner, token);\n        bountyFactory = f;\n        return true;\n    }\n    \n    function buy(bytes32 algoId, uint value) public returns (bool success) {\n        address sender = msg.sender;\n        \n        require(!hasPurchased[msg.sender][algoId]);\n\n        ERC20Interface c = ERC20Interface(token);\n        \n        require(c.transferFrom(sender, address(this), value));\n\n        hasPurchased[sender][algoId] = true;\n        \n        if (totals[algoId] < 1) {\n            totals[algoId] = 1;\n        } else {\n            totals[algoId]++;\n        }\n        \n        return true;\n    }\n    \n    function transferToken (address receiver, uint amount) public {\n        require(msg.sender == owner);\n        \n        ERC20Interface c = ERC20Interface(token);\n        require(c.transfer(receiver, amount));\n    }\n}\n\ncontract DmlBountyFactory {\n    address public marketplace;\n    address public owner;\n    address public token;\n    address[] public allBountyAddresses;\n    mapping(address => address[]) public bountyAddressByCreator;\n    mapping(address => address[]) public bountyAddressByParticipant;\n    \n    constructor(address ownerAddress, address tokenAddress) public {\n        marketplace = msg.sender;\n        owner = ownerAddress;\n        token = tokenAddress;\n    }\n\n    function getAllBounties() view public returns (address[] bounties) {\n        return allBountyAddresses;\n    }\n\n    function getBountiesByCreator(address creatorAddress) view public returns (address[] bounties) {\n        return bountyAddressByCreator[creatorAddress];\n    }\n\n    function getBountiesByParticipant(address participantAddress) view public returns (address[] bounties) {\n        return bountyAddressByParticipant[participantAddress];\n    }\n    \n    function createBounty(uint[] prizes) public {\n        address creator = msg.sender;\n        address newBounty = new Bounty(token, creator, owner, prizes);\n        allBountyAddresses.push(newBounty);\n        bountyAddressByCreator[msg.sender].push(newBounty);\n    }\n    \n    function joinBounty(address bountyAddress) public {\n        Bounty b = Bounty(bountyAddress);\n        \n        require(b.join(msg.sender));\n        \n        bountyAddressByParticipant[msg.sender].push(bountyAddress);\n    }\n}\n\ncontract Bounty {\n    // contract addresses\n    address public factory;\n    \n    // public constants\n    address public creator;\n    address public moderator;\n    address public token;\n\n    // state variables\n    uint[] public prizes;\n    address[] public winners;\n    address[] public participants;\n    Status public status;\n    mapping(address => bool) public participantsMap;\n\n    enum Status {\n        Initialized,\n        ReadyForEnrollment,\n        EnrollmentStart,\n        EnrollmentEnd,\n        BountyStart,\n        BountyEnd,\n        Completed,\n        Paused\n    }\n    \n    constructor(address tokenAddress, address creatorAddress, address ownerAddress, uint[] initPrizes) public {\n        factory = msg.sender;\n        creator = creatorAddress;\n        moderator = ownerAddress;\n        token = tokenAddress;\n        prizes = initPrizes;\n        status = Status.Initialized;\n    }\n    \n    function isFunded() public view returns (bool success) {\n        ERC20Interface c = ERC20Interface(token);\n        require(getTotalPrize() <= c.balanceOf(address(this)));\n        return true;\n    }\n\n    function getData() public view returns (uint[] retPrizes, address[] retWinenrs, address[] retParticipants, Status retStatus) {\n        return (prizes, winners, participants, status);\n    }\n\n    // function getPrizes() public view returns (uint[] ret) {\n    //     return prizes;\n    // }\n\n    // function getWinners() public view returns (address[] ret) {\n    //     return winners;\n    // }\n\n    // function getParticipants() public view returns (address[] ret) {\n    //     return participants;\n    // }\n    \n    function join(address participantAddress) public returns (bool success) {\n        if (status != Status.EnrollmentStart) {\n            return false;\n        }\n        \n        if (participantsMap[participantAddress] == true) {\n            return false;\n        }\n        \n        participants.push(participantAddress);\n        participantsMap[participantAddress] = true;\n        \n        return true;\n    }\n    \n    function updatePrizes(uint[] newPrizes) public {\n        require(msg.sender == moderator || msg.sender == creator);\n        prizes = newPrizes;\n    }\n\n    function setStatus(Status newStatus) private returns (bool success) {\n        require(msg.sender == moderator || msg.sender == creator);\n        status = newStatus;\n        return true;\n    }\n    \n    function startEnrollment() public {\n        require(prizes.length > 0);\n        require(isFunded());\n        setStatus(Status.EnrollmentStart);\n    }\n    \n    function stopEnrollment() public {\n        require(status == Status.EnrollmentStart);\n        setStatus(Status.EnrollmentEnd);\n    }\n    \n    function startBounty() public {\n        require(status == Status.EnrollmentStart);\n        setStatus(Status.BountyStart);\n    }\n    \n    function stopBounty() public {\n        require(status == Status.BountyStart);\n        setStatus(Status.BountyEnd);\n    }\n\n    function updateWinners(address[] newWinners) public {\n        require(msg.sender == moderator || msg.sender == creator);\n        require(status == Status.BountyEnd);\n        require(newWinners.length == prizes.length);\n        winners = newWinners;\n    }\n\n    function payoutWinners() public {\n        require(msg.sender == moderator || msg.sender == creator);\n        ERC20Interface c = ERC20Interface(token);\n        require(isFunded());\n        require(winners.length == prizes.length);\n        require(status == Status.BountyEnd);\n\n        for (uint i = 0; i < prizes.length; i++) {\n            require(c.transfer(winners[i], prizes[i]));\n        }\n        \n        setStatus(Status.Completed);\n    }\n    \n    function getTotalPrize() public constant returns (uint total) {\n        uint t = 0;\n        for (uint i = 0; i < prizes.length; i++) {\n            t = t + prizes[i];\n        }\n        return t;\n    }\n\n    function transferToken (address receiver, uint amount) public {\n        require(msg.sender == moderator);\n        ERC20Interface c = ERC20Interface(token);\n        require(c.transfer(receiver, amount));\n    }\n    \n}\n\ncontract ERC20Interface {\n    function totalSupply() public constant returns (uint);\n    function balanceOf(address tokenOwner) public constant returns (uint balance);\n    function allowance(address tokenOwner, address spender) public constant returns (uint remaining);\n    function transfer(address to, uint tokens) public returns (bool success);\n    function approve(address spender, uint tokens) public returns (bool success);\n    function transferFrom(address from, address to, uint tokens) public returns (bool success);\n}",
  "sourcePath": "/Users/chikeichan/Projects/dml/marketplace-prototype/src/solidity/contracts/DmlMarketplace.sol",
  "compiler": {
    "name": "solc",
    "version": "0.4.22+commit.4cb486ee.Emscripten.clang"
  },
  "schemaVersion": "2.0.0",
  "updatedAt": "2018-04-20T01:24:36.944Z"
}