{
  "contractName": "Bounty",
  "abi": [
    {
      "constant": true,
      "inputs": [],
      "name": "creator",
      "outputs": [
        {
          "name": "",
          "type": "address"
        }
      ],
      "payable": false,
      "stateMutability": "view",
      "type": "function"
    },
    {
      "constant": true,
      "inputs": [],
      "name": "name",
      "outputs": [
        {
          "name": "",
          "type": "string"
        }
      ],
      "payable": false,
      "stateMutability": "view",
      "type": "function"
    },
    {
      "constant": true,
      "inputs": [],
      "name": "status",
      "outputs": [
        {
          "name": "",
          "type": "uint8"
        }
      ],
      "payable": false,
      "stateMutability": "view",
      "type": "function"
    },
    {
      "constant": true,
      "inputs": [
        {
          "name": "",
          "type": "uint256"
        }
      ],
      "name": "participants",
      "outputs": [
        {
          "name": "",
          "type": "address"
        }
      ],
      "payable": false,
      "stateMutability": "view",
      "type": "function"
    },
    {
      "constant": true,
      "inputs": [
        {
          "name": "",
          "type": "address"
        }
      ],
      "name": "participantsMap",
      "outputs": [
        {
          "name": "",
          "type": "bool"
        }
      ],
      "payable": false,
      "stateMutability": "view",
      "type": "function"
    },
    {
      "constant": true,
      "inputs": [
        {
          "name": "",
          "type": "uint256"
        }
      ],
      "name": "winners",
      "outputs": [
        {
          "name": "",
          "type": "address"
        }
      ],
      "payable": false,
      "stateMutability": "view",
      "type": "function"
    },
    {
      "constant": true,
      "inputs": [],
      "name": "marketplace",
      "outputs": [
        {
          "name": "",
          "type": "address"
        }
      ],
      "payable": false,
      "stateMutability": "view",
      "type": "function"
    },
    {
      "constant": true,
      "inputs": [],
      "name": "factory",
      "outputs": [
        {
          "name": "",
          "type": "address"
        }
      ],
      "payable": false,
      "stateMutability": "view",
      "type": "function"
    },
    {
      "constant": true,
      "inputs": [],
      "name": "createdAt",
      "outputs": [
        {
          "name": "",
          "type": "uint256"
        }
      ],
      "payable": false,
      "stateMutability": "view",
      "type": "function"
    },
    {
      "constant": true,
      "inputs": [
        {
          "name": "",
          "type": "uint256"
        }
      ],
      "name": "prizes",
      "outputs": [
        {
          "name": "",
          "type": "uint256"
        }
      ],
      "payable": false,
      "stateMutability": "view",
      "type": "function"
    },
    {
      "constant": true,
      "inputs": [],
      "name": "token",
      "outputs": [
        {
          "name": "",
          "type": "address"
        }
      ],
      "payable": false,
      "stateMutability": "view",
      "type": "function"
    },
    {
      "inputs": [
        {
          "name": "tokenAddress",
          "type": "address"
        },
        {
          "name": "creatorAddress",
          "type": "address"
        },
        {
          "name": "initName",
          "type": "string"
        },
        {
          "name": "initPrizes",
          "type": "uint256[]"
        },
        {
          "name": "mpAddress",
          "type": "address"
        }
      ],
      "payable": false,
      "stateMutability": "nonpayable",
      "type": "constructor"
    },
    {
      "constant": true,
      "inputs": [],
      "name": "isFunded",
      "outputs": [
        {
          "name": "success",
          "type": "bool"
        }
      ],
      "payable": false,
      "stateMutability": "view",
      "type": "function"
    },
    {
      "constant": true,
      "inputs": [],
      "name": "getData",
      "outputs": [
        {
          "name": "retName",
          "type": "string"
        },
        {
          "name": "retPrizes",
          "type": "uint256[]"
        },
        {
          "name": "retWinenrs",
          "type": "address[]"
        },
        {
          "name": "retParticipants",
          "type": "address[]"
        },
        {
          "name": "retStatus",
          "type": "uint8"
        },
        {
          "name": "retCreator",
          "type": "address"
        },
        {
          "name": "createdTime",
          "type": "uint256"
        }
      ],
      "payable": false,
      "stateMutability": "view",
      "type": "function"
    },
    {
      "constant": false,
      "inputs": [
        {
          "name": "participantAddress",
          "type": "address"
        }
      ],
      "name": "join",
      "outputs": [
        {
          "name": "success",
          "type": "bool"
        }
      ],
      "payable": false,
      "stateMutability": "nonpayable",
      "type": "function"
    },
    {
      "constant": false,
      "inputs": [
        {
          "name": "newName",
          "type": "string"
        },
        {
          "name": "newPrizes",
          "type": "uint256[]"
        }
      ],
      "name": "updateBounty",
      "outputs": [],
      "payable": false,
      "stateMutability": "nonpayable",
      "type": "function"
    },
    {
      "constant": false,
      "inputs": [
        {
          "name": "newName",
          "type": "string"
        }
      ],
      "name": "updateName",
      "outputs": [
        {
          "name": "success",
          "type": "bool"
        }
      ],
      "payable": false,
      "stateMutability": "nonpayable",
      "type": "function"
    },
    {
      "constant": false,
      "inputs": [
        {
          "name": "newName",
          "type": "string"
        }
      ],
      "name": "forceUpdateName",
      "outputs": [
        {
          "name": "success",
          "type": "bool"
        }
      ],
      "payable": false,
      "stateMutability": "nonpayable",
      "type": "function"
    },
    {
      "constant": false,
      "inputs": [
        {
          "name": "newPrizes",
          "type": "uint256[]"
        }
      ],
      "name": "updatePrizes",
      "outputs": [
        {
          "name": "success",
          "type": "bool"
        }
      ],
      "payable": false,
      "stateMutability": "nonpayable",
      "type": "function"
    },
    {
      "constant": false,
      "inputs": [
        {
          "name": "newPrizes",
          "type": "uint256[]"
        }
      ],
      "name": "forceUpdatePrizes",
      "outputs": [
        {
          "name": "success",
          "type": "bool"
        }
      ],
      "payable": false,
      "stateMutability": "nonpayable",
      "type": "function"
    },
    {
      "constant": false,
      "inputs": [
        {
          "name": "newStatus",
          "type": "uint8"
        }
      ],
      "name": "forceSetStatus",
      "outputs": [
        {
          "name": "success",
          "type": "bool"
        }
      ],
      "payable": false,
      "stateMutability": "nonpayable",
      "type": "function"
    },
    {
      "constant": false,
      "inputs": [],
      "name": "startEnrollment",
      "outputs": [],
      "payable": false,
      "stateMutability": "nonpayable",
      "type": "function"
    },
    {
      "constant": false,
      "inputs": [],
      "name": "stopEnrollment",
      "outputs": [],
      "payable": false,
      "stateMutability": "nonpayable",
      "type": "function"
    },
    {
      "constant": false,
      "inputs": [],
      "name": "startBounty",
      "outputs": [],
      "payable": false,
      "stateMutability": "nonpayable",
      "type": "function"
    },
    {
      "constant": false,
      "inputs": [],
      "name": "stopBounty",
      "outputs": [],
      "payable": false,
      "stateMutability": "nonpayable",
      "type": "function"
    },
    {
      "constant": false,
      "inputs": [
        {
          "name": "newWinners",
          "type": "address[]"
        }
      ],
      "name": "updateWinners",
      "outputs": [],
      "payable": false,
      "stateMutability": "nonpayable",
      "type": "function"
    },
    {
      "constant": false,
      "inputs": [
        {
          "name": "newWinners",
          "type": "address[]"
        }
      ],
      "name": "forceUpdateWinners",
      "outputs": [],
      "payable": false,
      "stateMutability": "nonpayable",
      "type": "function"
    },
    {
      "constant": false,
      "inputs": [],
      "name": "payoutWinners",
      "outputs": [],
      "payable": false,
      "stateMutability": "nonpayable",
      "type": "function"
    },
    {
      "constant": true,
      "inputs": [],
      "name": "getTotalPrize",
      "outputs": [
        {
          "name": "total",
          "type": "uint256"
        }
      ],
      "payable": false,
      "stateMutability": "view",
      "type": "function"
    },
    {
      "constant": false,
      "inputs": [
        {
          "name": "receiver",
          "type": "address"
        },
        {
          "name": "amount",
          "type": "uint256"
        }
      ],
      "name": "transferToken",
      "outputs": [],
      "payable": false,
      "stateMutability": "nonpayable",
      "type": "function"
    }
  ],
  "bytecode": "0x60806040523480156200001157600080fd5b5060405162002b1738038062002b178339810180604052810190808051906020019092919080519060200190929190805182019291906020018051820192919060200180519060200190929190505050336000806101000a81548173ffffffffffffffffffffffffffffffffffffffff021916908373ffffffffffffffffffffffffffffffffffffffff16021790555080600360006101000a81548173ffffffffffffffffffffffffffffffffffffffff021916908373ffffffffffffffffffffffffffffffffffffffff16021790555083600160006101000a81548173ffffffffffffffffffffffffffffffffffffffff021916908373ffffffffffffffffffffffffffffffffffffffff16021790555084600260006101000a81548173ffffffffffffffffffffffffffffffffffffffff021916908373ffffffffffffffffffffffffffffffffffffffff16021790555081600590805190602001906200017c929190620001cd565b506000600960006101000a81548160ff021916908360078111156200019d57fe5b02179055508260049080519060200190620001ba9291906200021f565b50426006819055505050505050620002ce565b8280548282559060005260206000209081019282156200020c579160200282015b828111156200020b578251825591602001919060010190620001ee565b5b5090506200021b9190620002a6565b5090565b828054600181600116156101000203166002900490600052602060002090601f016020900481019282601f106200026257805160ff191683800117855562000293565b8280016001018555821562000293579182015b828111156200029257825182559160200191906001019062000275565b5b509050620002a29190620002a6565b5090565b620002cb91905b80821115620002c7576000816000905550600101620002ad565b5090565b90565b61283980620002de6000396000f300608060405260043610610175576000357c0100000000000000000000000000000000000000000000000000000000900463ffffffff16806302d05d3f1461017a57806306fdde03146101d15780631072cbea14610261578063158ef412146102ae578063200d2ed21461032f578063240dfd6e1461036857806328ffe6c81461037f5780632c4d89b4146103da57806335c1d349146104225780633bc5de301461048f5780633edaf264146106465780634a81dc0f1461065d578063537a0c62146106db5780635c2ee908146107365780637c6543031461079c5780638044c67e146107cb57806384da92a7146108495780639f7c94aa146108ca578063a22fb98b146108e1578063a2fb11751461098d578063abc8c7af146109fa578063adeaa85114610a51578063c45a015514610a7c578063c8b2677314610ad3578063cf09e0d014610aea578063eccb3a4f14610b15578063f803bef014610b56578063fadcf13c14610bbc578063fc0c546a14610bd3575b600080fd5b34801561018657600080fd5b5061018f610c2a565b604051808273ffffffffffffffffffffffffffffffffffffffff1673ffffffffffffffffffffffffffffffffffffffff16815260200191505060405180910390f35b3480156101dd57600080fd5b506101e6610c50565b6040518080602001828103825283818151815260200191508051906020019080838360005b8381101561022657808201518184015260208101905061020b565b50505050905090810190601f1680156102535780820380516001836020036101000a031916815260200191505b509250505060405180910390f35b34801561026d57600080fd5b506102ac600480360381019080803573ffffffffffffffffffffffffffffffffffffffff16906020019092919080359060200190929190505050610cee565b005b3480156102ba57600080fd5b50610315600480360381019080803590602001908201803590602001908080601f0160208091040260200160405190810160405280939291908181526020018383808284378201915050505050509192919290505050610f0b565b604051808215151515815260200191505060405180910390f35b34801561033b57600080fd5b50610344611035565b6040518082600781111561035457fe5b60ff16815260200191505060405180910390f35b34801561037457600080fd5b5061037d611048565b005b34801561038b57600080fd5b506103c0600480360381019080803573ffffffffffffffffffffffffffffffffffffffff169060200190929190505050611089565b604051808215151515815260200191505060405180910390f35b3480156103e657600080fd5b50610408600480360381019080803560ff169060200190929190505050611248565b604051808215151515815260200191505060405180910390f35b34801561042e57600080fd5b5061044d6004803603810190808035906020019092919050505061137e565b604051808273ffffffffffffffffffffffffffffffffffffffff1673ffffffffffffffffffffffffffffffffffffffff16815260200191505060405180910390f35b34801561049b57600080fd5b506104a46113bc565b60405180806020018060200180602001806020018860078111156104c457fe5b60ff1681526020018773ffffffffffffffffffffffffffffffffffffffff1673ffffffffffffffffffffffffffffffffffffffff16815260200186815260200185810385528c818151815260200191508051906020019080838360005b8381101561053c578082015181840152602081019050610521565b50505050905090810190601f1680156105695780820380516001836020036101000a031916815260200191505b5085810384528b818151815260200191508051906020019060200280838360005b838110156105a557808201518184015260208101905061058a565b5050505090500185810383528a818151815260200191508051906020019060200280838360005b838110156105e75780820151818401526020810190506105cc565b50505050905001858103825289818151815260200191508051906020019060200280838360005b8381101561062957808201518184015260208101905061060e565b505050509050019b50505050505050505050505060405180910390f35b34801561065257600080fd5b5061065b61161a565b005b34801561066957600080fd5b506106c16004803603810190808035906020019082018035906020019080806020026020016040519081016040528093929190818152602001838360200280828437820191505050505050919291929050505061165b565b604051808215151515815260200191505060405180910390f35b3480156106e757600080fd5b5061071c600480360381019080803573ffffffffffffffffffffffffffffffffffffffff169060200190929190505050611785565b604051808215151515815260200191505060405180910390f35b34801561074257600080fd5b5061079a600480360381019080803590602001908201803590602001908080602002602001604051908101604052809392919081815260200183836020028082843782019150505050505091929192905050506117a5565b005b3480156107a857600080fd5b506107b16119ff565b604051808215151515815260200191505060405180910390f35b3480156107d757600080fd5b5061082f60048036038101908080359060200190820180359060200190808060200260200160405190810160405280939291908181526020018383602002808284378201915050505050509192919290505050611b1a565b604051808215151515815260200191505060405180910390f35b34801561085557600080fd5b506108b0600480360381019080803590602001908201803590602001908080601f0160208091040260200160405190810160405280939291908181526020018383808284378201915050505050509192919290505050611cd0565b604051808215151515815260200191505060405180910390f35b3480156108d657600080fd5b506108df611e52565b005b3480156108ed57600080fd5b5061098b600480360381019080803590602001908201803590602001908080601f0160208091040260200160405190810160405280939291908181526020018383808284378201915050505050509192919290803590602001908201803590602001908080602002602001604051908101604052809392919081815260200183836020028082843782019150505050505091929192905050506121a3565b005b34801561099957600080fd5b506109b8600480360381019080803590602001909291905050506121cf565b604051808273ffffffffffffffffffffffffffffffffffffffff1673ffffffffffffffffffffffffffffffffffffffff16815260200191505060405180910390f35b348015610a0657600080fd5b50610a0f61220d565b604051808273ffffffffffffffffffffffffffffffffffffffff1673ffffffffffffffffffffffffffffffffffffffff16815260200191505060405180910390f35b348015610a5d57600080fd5b50610a66612233565b6040518082815260200191505060405180910390f35b348015610a8857600080fd5b50610a91612280565b604051808273ffffffffffffffffffffffffffffffffffffffff1673ffffffffffffffffffffffffffffffffffffffff16815260200191505060405180910390f35b348015610adf57600080fd5b50610ae86122a5565b005b348015610af657600080fd5b50610aff61230d565b6040518082815260200191505060405180910390f35b348015610b2157600080fd5b50610b4060048036038101908080359060200190929190505050612313565b6040518082815260200191505060405180910390f35b348015610b6257600080fd5b50610bba60048036038101908080359060200190820180359060200190808060200260200160405190810160405280939291908181526020018383602002808284378201915050505050509192919290505050612336565b005b348015610bc857600080fd5b50610bd1612459565b005b348015610bdf57600080fd5b50610be861249a565b604051808273ffffffffffffffffffffffffffffffffffffffff1673ffffffffffffffffffffffffffffffffffffffff16815260200191505060405180910390f35b600160009054906101000a900473ffffffffffffffffffffffffffffffffffffffff1681565b60048054600181600116156101000203166002900480601f016020809104026020016040519081016040528092919081815260200182805460018160011615610100020316600290048015610ce65780601f10610cbb57610100808354040283529160200191610ce6565b820191906000526020600020905b815481529060010190602001808311610cc957829003601f168201915b505050505081565b600080600360009054906101000a900473ffffffffffffffffffffffffffffffffffffffff1691508173ffffffffffffffffffffffffffffffffffffffff1663fa6f3936336040518263ffffffff167c0100000000000000000000000000000000000000000000000000000000028152600401808273ffffffffffffffffffffffffffffffffffffffff1673ffffffffffffffffffffffffffffffffffffffff168152602001915050602060405180830381600087803b158015610db157600080fd5b505af1158015610dc5573d6000803e3d6000fd5b505050506040513d6020811015610ddb57600080fd5b81019080805190602001909291905050501515610df757600080fd5b600260009054906101000a900473ffffffffffffffffffffffffffffffffffffffff1690508073ffffffffffffffffffffffffffffffffffffffff1663a9059cbb85856040518363ffffffff167c0100000000000000000000000000000000000000000000000000000000028152600401808373ffffffffffffffffffffffffffffffffffffffff1673ffffffffffffffffffffffffffffffffffffffff16815260200182815260200192505050602060405180830381600087803b158015610ebf57600080fd5b505af1158015610ed3573d6000803e3d6000fd5b505050506040513d6020811015610ee957600080fd5b81019080805190602001909291905050501515610f0557600080fd5b50505050565b600080600360009054906101000a900473ffffffffffffffffffffffffffffffffffffffff1690508073ffffffffffffffffffffffffffffffffffffffff1663fa6f3936336040518263ffffffff167c0100000000000000000000000000000000000000000000000000000000028152600401808273ffffffffffffffffffffffffffffffffffffffff1673ffffffffffffffffffffffffffffffffffffffff168152602001915050602060405180830381600087803b158015610fce57600080fd5b505af1158015610fe2573d6000803e3d6000fd5b505050506040513d6020811015610ff857600080fd5b8101908080519060200190929190505050151561101457600080fd5b826004908051906020019061102a92919061264e565b506001915050919050565b600960009054906101000a900460ff1681565b6001600781111561105557fe5b600960009054906101000a900460ff16600781111561107057fe5b14151561107c57600080fd5b61108660026124c0565b50565b60008060009054906101000a900473ffffffffffffffffffffffffffffffffffffffff1673ffffffffffffffffffffffffffffffffffffffff163373ffffffffffffffffffffffffffffffffffffffff161415156110e657600080fd5b600160078111156110f357fe5b600960009054906101000a900460ff16600781111561110e57fe5b14151561111e5760009050611243565b60011515600a60008473ffffffffffffffffffffffffffffffffffffffff1673ffffffffffffffffffffffffffffffffffffffff16815260200190815260200160002060009054906101000a900460ff16151514156111805760009050611243565b60088290806001815401808255809150509060018203906000526020600020016000909192909190916101000a81548173ffffffffffffffffffffffffffffffffffffffff021916908373ffffffffffffffffffffffffffffffffffffffff160217905550506001600a60008473ffffffffffffffffffffffffffffffffffffffff1673ffffffffffffffffffffffffffffffffffffffff16815260200190815260200160002060006101000a81548160ff021916908315150217905550600190505b919050565b600080600360009054906101000a900473ffffffffffffffffffffffffffffffffffffffff1690508073ffffffffffffffffffffffffffffffffffffffff1663fa6f3936336040518263ffffffff167c0100000000000000000000000000000000000000000000000000000000028152600401808273ffffffffffffffffffffffffffffffffffffffff1673ffffffffffffffffffffffffffffffffffffffff168152602001915050602060405180830381600087803b15801561130b57600080fd5b505af115801561131f573d6000803e3d6000fd5b505050506040513d602081101561133557600080fd5b8101908080519060200190929190505050151561135157600080fd5b82600960006101000a81548160ff0219169083600781111561136f57fe5b02179055506001915050919050565b60088181548110151561138d57fe5b906000526020600020016000915054906101000a900473ffffffffffffffffffffffffffffffffffffffff1681565b60608060608060008060006004600560076008600960009054906101000a900460ff16600160009054906101000a900473ffffffffffffffffffffffffffffffffffffffff16600654868054600181600116156101000203166002900480601f01602080910402602001604051908101604052809291908181526020018280546001816001161561010002031660029004801561149a5780601f1061146f5761010080835404028352916020019161149a565b820191906000526020600020905b81548152906001019060200180831161147d57829003601f168201915b50505050509650858054806020026020016040519081016040528092919081815260200182805480156114ec57602002820191906000526020600020905b8154815260200190600101908083116114d8575b505050505095508480548060200260200160405190810160405280929190818152602001828054801561157457602002820191906000526020600020905b8160009054906101000a900473ffffffffffffffffffffffffffffffffffffffff1673ffffffffffffffffffffffffffffffffffffffff168152602001906001019080831161152a575b50505050509450838054806020026020016040519081016040528092919081815260200182805480156115fc57602002820191906000526020600020905b8160009054906101000a900473ffffffffffffffffffffffffffffffffffffffff1673ffffffffffffffffffffffffffffffffffffffff16815260200190600101908083116115b2575b50505050509350965096509650965096509650965090919293949596565b6003600781111561162757fe5b600960009054906101000a900460ff16600781111561164257fe5b14151561164e57600080fd5b61165860046124c0565b50565b600080600360009054906101000a900473ffffffffffffffffffffffffffffffffffffffff1690508073ffffffffffffffffffffffffffffffffffffffff1663fa6f3936336040518263ffffffff167c0100000000000000000000000000000000000000000000000000000000028152600401808273ffffffffffffffffffffffffffffffffffffffff1673ffffffffffffffffffffffffffffffffffffffff168152602001915050602060405180830381600087803b15801561171e57600080fd5b505af1158015611732573d6000803e3d6000fd5b505050506040513d602081101561174857600080fd5b8101908080519060200190929190505050151561176457600080fd5b826005908051906020019061177a9291906126ce565b506001915050919050565b600a6020528060005260406000206000915054906101000a900460ff1681565b600080600360009054906101000a900473ffffffffffffffffffffffffffffffffffffffff1691508173ffffffffffffffffffffffffffffffffffffffff1663fa6f3936336040518263ffffffff167c0100000000000000000000000000000000000000000000000000000000028152600401808273ffffffffffffffffffffffffffffffffffffffff1673ffffffffffffffffffffffffffffffffffffffff168152602001915050602060405180830381600087803b15801561186857600080fd5b505af115801561187c573d6000803e3d6000fd5b505050506040513d602081101561189257600080fd5b8101908080519060200190929190505050806118fb5750600160009054906101000a900473ffffffffffffffffffffffffffffffffffffffff1673ffffffffffffffffffffffffffffffffffffffff163373ffffffffffffffffffffffffffffffffffffffff16145b151561190657600080fd5b6004600781111561191357fe5b600960009054906101000a900460ff16600781111561192e57fe5b14151561193a57600080fd5b600580549050835114151561194e57600080fd5b600090505b82518110156119d857600a6000848381518110151561196e57fe5b9060200190602002015173ffffffffffffffffffffffffffffffffffffffff1673ffffffffffffffffffffffffffffffffffffffff16815260200190815260200160002060009054906101000a900460ff1615156119cb57600080fd5b8080600101915050611953565b82600790805190602001906119ee92919061271b565b506119f960056124c0565b50505050565b600080600260009054906101000a900473ffffffffffffffffffffffffffffffffffffffff1690508073ffffffffffffffffffffffffffffffffffffffff166370a08231306040518263ffffffff167c0100000000000000000000000000000000000000000000000000000000028152600401808273ffffffffffffffffffffffffffffffffffffffff1673ffffffffffffffffffffffffffffffffffffffff168152602001915050602060405180830381600087803b158015611ac257600080fd5b505af1158015611ad6573d6000803e3d6000fd5b505050506040513d6020811015611aec57600080fd5b8101908080519060200190929190505050611b05612233565b11151515611b1257600080fd5b600191505090565b600080600360009054906101000a900473ffffffffffffffffffffffffffffffffffffffff1690508073ffffffffffffffffffffffffffffffffffffffff1663fa6f3936336040518263ffffffff167c0100000000000000000000000000000000000000000000000000000000028152600401808273ffffffffffffffffffffffffffffffffffffffff1673ffffffffffffffffffffffffffffffffffffffff168152602001915050602060405180830381600087803b158015611bdd57600080fd5b505af1158015611bf1573d6000803e3d6000fd5b505050506040513d6020811015611c0757600080fd5b810190808051906020019092919050505080611c705750600160009054906101000a900473ffffffffffffffffffffffffffffffffffffffff1673ffffffffffffffffffffffffffffffffffffffff163373ffffffffffffffffffffffffffffffffffffffff16145b1515611c7b57600080fd5b60006007811115611c8857fe5b600960009054906101000a900460ff166007811115611ca357fe5b141515611caf57600080fd5b8260059080519060200190611cc59291906126ce565b506001915050919050565b600080600360009054906101000a900473ffffffffffffffffffffffffffffffffffffffff1690508073ffffffffffffffffffffffffffffffffffffffff1663fa6f3936336040518263ffffffff167c0100000000000000000000000000000000000000000000000000000000028152600401808273ffffffffffffffffffffffffffffffffffffffff1673ffffffffffffffffffffffffffffffffffffffff168152602001915050602060405180830381600087803b158015611d9357600080fd5b505af1158015611da7573d6000803e3d6000fd5b505050506040513d6020811015611dbd57600080fd5b810190808051906020019092919050505080611e265750600160009054906101000a900473ffffffffffffffffffffffffffffffffffffffff1673ffffffffffffffffffffffffffffffffffffffff163373ffffffffffffffffffffffffffffffffffffffff16145b1515611e3157600080fd5b8260049080519060200190611e4792919061264e565b506001915050919050565b6000806000600260009054906101000a900473ffffffffffffffffffffffffffffffffffffffff169250600360009054906101000a900473ffffffffffffffffffffffffffffffffffffffff1691508173ffffffffffffffffffffffffffffffffffffffff1663fa6f3936336040518263ffffffff167c0100000000000000000000000000000000000000000000000000000000028152600401808273ffffffffffffffffffffffffffffffffffffffff1673ffffffffffffffffffffffffffffffffffffffff168152602001915050602060405180830381600087803b158015611f3c57600080fd5b505af1158015611f50573d6000803e3d6000fd5b505050506040513d6020811015611f6657600080fd5b810190808051906020019092919050505080611fcf5750600160009054906101000a900473ffffffffffffffffffffffffffffffffffffffff1673ffffffffffffffffffffffffffffffffffffffff163373ffffffffffffffffffffffffffffffffffffffff16145b1515611fda57600080fd5b611fe26119ff565b1515611fed57600080fd5b60058054905060078054905014151561200557600080fd5b6005600781111561201257fe5b600960009054906101000a900460ff16600781111561202d57fe5b14151561203957600080fd5b600090505b600580549050811015612193578273ffffffffffffffffffffffffffffffffffffffff1663a9059cbb60078381548110151561207657fe5b9060005260206000200160009054906101000a900473ffffffffffffffffffffffffffffffffffffffff166005848154811015156120b057fe5b90600052602060002001546040518363ffffffff167c0100000000000000000000000000000000000000000000000000000000028152600401808373ffffffffffffffffffffffffffffffffffffffff1673ffffffffffffffffffffffffffffffffffffffff16815260200182815260200192505050602060405180830381600087803b15801561214057600080fd5b505af1158015612154573d6000803e3d6000fd5b505050506040513d602081101561216a57600080fd5b8101908080519060200190929190505050151561218657600080fd5b808060010191505061203e565b61219d60066124c0565b50505050565b6121ac82611cd0565b15156121b757600080fd5b6121c081611b1a565b15156121cb57600080fd5b5050565b6007818154811015156121de57fe5b906000526020600020016000915054906101000a900473ffffffffffffffffffffffffffffffffffffffff1681565b600360009054906101000a900473ffffffffffffffffffffffffffffffffffffffff1681565b6000806000809150600090505b6005805490508110156122785760058181548110151561225c57fe5b9060005260206000200154820191508080600101915050612240565b819250505090565b6000809054906101000a900473ffffffffffffffffffffffffffffffffffffffff1681565b600060078111156122b257fe5b600960009054906101000a900460ff1660078111156122cd57fe5b1415156122d957600080fd5b60006005805490501115156122ed57600080fd5b6122f56119ff565b151561230057600080fd5b61230a60016124c0565b50565b60065481565b60058181548110151561232257fe5b906000526020600020016000915090505481565b6000600360009054906101000a900473ffffffffffffffffffffffffffffffffffffffff1690508073ffffffffffffffffffffffffffffffffffffffff1663fa6f3936336040518263ffffffff167c0100000000000000000000000000000000000000000000000000000000028152600401808273ffffffffffffffffffffffffffffffffffffffff1673ffffffffffffffffffffffffffffffffffffffff168152602001915050602060405180830381600087803b1580156123f857600080fd5b505af115801561240c573d6000803e3d6000fd5b505050506040513d602081101561242257600080fd5b8101908080519060200190929190505050151561243e57600080fd5b816007908051906020019061245492919061271b565b505050565b6002600781111561246657fe5b600960009054906101000a900460ff16600781111561248157fe5b14151561248d57600080fd5b61249760036124c0565b50565b600260009054906101000a900473ffffffffffffffffffffffffffffffffffffffff1681565b600080600360009054906101000a900473ffffffffffffffffffffffffffffffffffffffff1690508073ffffffffffffffffffffffffffffffffffffffff1663fa6f3936336040518263ffffffff167c0100000000000000000000000000000000000000000000000000000000028152600401808273ffffffffffffffffffffffffffffffffffffffff1673ffffffffffffffffffffffffffffffffffffffff168152602001915050602060405180830381600087803b15801561258357600080fd5b505af1158015612597573d6000803e3d6000fd5b505050506040513d60208110156125ad57600080fd5b8101908080519060200190929190505050806126165750600160009054906101000a900473ffffffffffffffffffffffffffffffffffffffff1673ffffffffffffffffffffffffffffffffffffffff163373ffffffffffffffffffffffffffffffffffffffff16145b151561262157600080fd5b82600960006101000a81548160ff0219169083600781111561263f57fe5b02179055506001915050919050565b828054600181600116156101000203166002900490600052602060002090601f016020900481019282601f1061268f57805160ff19168380011785556126bd565b828001600101855582156126bd579182015b828111156126bc5782518255916020019190600101906126a1565b5b5090506126ca91906127a5565b5090565b82805482825590600052602060002090810192821561270a579160200282015b828111156127095782518255916020019190600101906126ee565b5b50905061271791906127a5565b5090565b828054828255906000526020600020908101928215612794579160200282015b828111156127935782518260006101000a81548173ffffffffffffffffffffffffffffffffffffffff021916908373ffffffffffffffffffffffffffffffffffffffff1602179055509160200191906001019061273b565b5b5090506127a191906127ca565b5090565b6127c791905b808211156127c35760008160009055506001016127ab565b5090565b90565b61280a91905b8082111561280657600081816101000a81549073ffffffffffffffffffffffffffffffffffffffff0219169055506001016127d0565b5090565b905600a165627a7a7230582078f92c9b03c7ab6b3dc1f5254c6fde59af6deaaa2d405ed060840b96be51e4340029",
  "source": "pragma solidity ^0.4.22;\n\ncontract DmlMarketplace {\n    // Public Variables\n    mapping(address => bool) public moderators;\n    address public token;\n    \n    // bountyFactory address\n    DmlBountyFactory public bountyFactory;\n    \n    \n    mapping(bytes32 => uint) public totals;\n    mapping(address => mapping(bytes32 => bool)) public hasPurchased;\n    \n    constructor() public {\n        moderators[msg.sender] = true;\n    }\n    \n    function isReady() view public returns (bool success) {\n        if (token == address(0) || bountyFactory == address(0)) {\n            return false;\n        }\n\n        return true;\n    }\n\n    function isModerator(address modAddress) view public returns (bool success) {\n        return moderators[modAddress];\n    }\n\n    function addModerator(address newModerator) public {\n        require(isModerator(msg.sender));\n        moderators[newModerator] = true;\n    }\n\n    function removeModerator(address mod) public {\n        require(isModerator(msg.sender));\n        moderators[mod] = false;\n    }\n\n    function init (address newTokenAddress) public returns (bool success) {\n        require(isModerator(msg.sender));\n        token = newTokenAddress;\n        DmlBountyFactory f = new DmlBountyFactory(token);\n        bountyFactory = f;\n        return true;\n    }\n\n    function setBountyFactory(address factoryAddress) public {\n        require(isModerator(msg.sender));\n        DmlBountyFactory f = DmlBountyFactory(factoryAddress);\n        bountyFactory = f;\n    }\n    \n    function buy(bytes32 algoId, uint value) public returns (bool success) {\n        address sender = msg.sender;\n        \n        require(!hasPurchased[msg.sender][algoId]);\n\n        ERC20Interface c = ERC20Interface(token);\n        \n        require(c.transferFrom(sender, address(this), value));\n\n        hasPurchased[sender][algoId] = true;\n        \n        if (totals[algoId] < 1) {\n            totals[algoId] = 1;\n        } else {\n            totals[algoId]++;\n        }\n        \n        return true;\n    }\n    \n    function transferToken (address receiver, uint amount) public {\n        require(isModerator(msg.sender));\n        \n        ERC20Interface c = ERC20Interface(token);\n        require(c.transfer(receiver, amount));\n    }\n}\n\ncontract DmlBountyFactory {\n    address public marketplace;\n    address public token;\n    address[] public allBountyAddresses;\n    mapping(address => address[]) public bountyAddressByCreator;\n    mapping(address => address[]) public bountyAddressByParticipant;\n    \n    constructor(address tokenAddress) public {\n        marketplace = msg.sender;\n        token = tokenAddress;\n    }\n\n    function getAllBounties() view public returns (address[] bounties) {\n        return allBountyAddresses;\n    }\n\n    function getBountiesByCreator(address creatorAddress) view public returns (address[] bounties) {\n        return bountyAddressByCreator[creatorAddress];\n    }\n\n    function getBountiesByParticipant(address participantAddress) view public returns (address[] bounties) {\n        return bountyAddressByParticipant[participantAddress];\n    }\n    \n    function createBounty(string name, uint[] prizes) public {\n        address creator = msg.sender;\n        address newBounty = new Bounty(token, creator, name, prizes, marketplace);\n        allBountyAddresses.push(newBounty);\n        bountyAddressByCreator[msg.sender].push(newBounty);\n    }\n    \n    function joinBounty(address bountyAddress) public {\n        Bounty b = Bounty(bountyAddress);\n        \n        require(b.join(msg.sender));\n        \n        bountyAddressByParticipant[msg.sender].push(bountyAddress);\n    }\n}\n\ncontract Bounty {\n    // contract addresses\n    address public factory;\n    \n    // public constants\n    address public creator;\n    address public token;\n    address public marketplace;\n\n    // state variables\n    string public name;\n    uint[] public prizes;\n    uint public createdAt;\n    address[] public winners;\n    address[] public participants;\n    Status public status;\n    mapping(address => bool) public participantsMap;\n\n    enum Status {\n        Initialized,\n        EnrollmentStart,\n        EnrollmentEnd,\n        BountyStart,\n        BountyEnd,\n        EvaluationEnd,\n        Completed,\n        Paused\n    }\n    \n    constructor(\n        address tokenAddress,\n        address creatorAddress,\n        string initName,\n        uint[] initPrizes,\n        address mpAddress\n    ) public {\n        factory = msg.sender;\n        marketplace = mpAddress;\n        creator = creatorAddress;\n        token = tokenAddress;\n        prizes = initPrizes;\n        status = Status.Initialized;\n        name = initName;\n        createdAt = now;\n    }\n    \n    function isFunded() public view returns (bool success) {\n        ERC20Interface c = ERC20Interface(token);\n        require(getTotalPrize() <= c.balanceOf(address(this)));\n        return true;\n    }\n\n    function getData() public view returns (string retName, uint[] retPrizes, address[] retWinenrs, address[] retParticipants, Status retStatus, address retCreator, uint createdTime) {\n        return (name, prizes, winners, participants, status, creator, createdAt);\n    }\n    \n    function join(address participantAddress) public returns (bool success) {\n        require(msg.sender == factory);\n\n        if (status != Status.EnrollmentStart) {\n            return false;\n        }\n        \n        if (participantsMap[participantAddress] == true) {\n            return false;\n        }\n        \n        participants.push(participantAddress);\n        participantsMap[participantAddress] = true;\n        \n        return true;\n    }\n\n    function updateBounty(string newName, uint[] newPrizes) public {\n        require(updateName(newName));\n        require(updatePrizes(newPrizes));\n    }\n\n    function updateName(string newName) public returns (bool success) {\n        DmlMarketplace dmp = DmlMarketplace(marketplace);\n        require(dmp.isModerator(msg.sender) || msg.sender == creator);\n        name = newName;\n        return true;\n    }\n\n    function forceUpdateName(string newName) public returns (bool success) {\n        DmlMarketplace dmp = DmlMarketplace(marketplace);\n        require(dmp.isModerator(msg.sender));\n        name = newName;\n        return true;\n    }\n    \n    function updatePrizes(uint[] newPrizes) public returns (bool success) {\n        DmlMarketplace dmp = DmlMarketplace(marketplace);\n        require(dmp.isModerator(msg.sender) || msg.sender == creator);\n        require(status == Status.Initialized);\n        prizes = newPrizes;\n        return true;\n    }\n\n    function forceUpdatePrizes(uint[] newPrizes) public returns (bool success) {\n        DmlMarketplace dmp = DmlMarketplace(marketplace);\n        require(dmp.isModerator(msg.sender));\n        prizes = newPrizes;\n        return true;\n    }\n\n    function setStatus(Status newStatus) private returns (bool success) {\n        DmlMarketplace dmp = DmlMarketplace(marketplace);\n        require(dmp.isModerator(msg.sender) || msg.sender == creator);\n        status = newStatus;\n        return true;\n    }\n\n    function forceSetStatus(Status newStatus) public returns (bool success) {\n        DmlMarketplace dmp = DmlMarketplace(marketplace);\n        require(dmp.isModerator(msg.sender));\n        status = newStatus;\n        return true;\n    }\n    \n    function startEnrollment() public {\n        require(status == Status.Initialized);\n        require(prizes.length > 0);\n        require(isFunded());\n        setStatus(Status.EnrollmentStart);\n    }\n    \n    function stopEnrollment() public {\n        require(status == Status.EnrollmentStart);\n        setStatus(Status.EnrollmentEnd);\n    }\n    \n    function startBounty() public {\n        require(status == Status.EnrollmentEnd);\n        setStatus(Status.BountyStart);\n    }\n    \n    function stopBounty() public {\n        require(status == Status.BountyStart);\n        setStatus(Status.BountyEnd);\n    }\n\n    function updateWinners(address[] newWinners) public {\n        DmlMarketplace dmp = DmlMarketplace(marketplace);\n        require(dmp.isModerator(msg.sender) || msg.sender == creator);\n        require(status == Status.BountyEnd);\n        require(newWinners.length == prizes.length);\n\n        for (uint i = 0; i < newWinners.length; i++) {\n            require(participantsMap[newWinners[i]]);\n        }\n\n        winners = newWinners;\n        setStatus(Status.EvaluationEnd);\n    }\n\n    function forceUpdateWinners(address[] newWinners) public {\n        DmlMarketplace dmp = DmlMarketplace(marketplace);\n        require(dmp.isModerator(msg.sender));\n\n        winners = newWinners;\n    }\n\n    function payoutWinners() public {\n        ERC20Interface c = ERC20Interface(token);\n        DmlMarketplace dmp = DmlMarketplace(marketplace);\n\n        require(dmp.isModerator(msg.sender) || msg.sender == creator);\n        require(isFunded());\n        require(winners.length == prizes.length);\n        require(status == Status.EvaluationEnd);\n\n        for (uint i = 0; i < prizes.length; i++) {\n            require(c.transfer(winners[i], prizes[i]));\n        }\n        \n        setStatus(Status.Completed);\n    }\n    \n    function getTotalPrize() public constant returns (uint total) {\n        uint t = 0;\n        for (uint i = 0; i < prizes.length; i++) {\n            t = t + prizes[i];\n        }\n        return t;\n    }\n\n    function transferToken (address receiver, uint amount) public {\n        DmlMarketplace dmp = DmlMarketplace(marketplace);\n        require(dmp.isModerator(msg.sender));\n        ERC20Interface c = ERC20Interface(token);\n        require(c.transfer(receiver, amount));\n    }\n    \n}\n\ncontract ERC20Interface {\n    function totalSupply() public constant returns (uint);\n    function balanceOf(address tokenOwner) public constant returns (uint balance);\n    function allowance(address tokenOwner, address spender) public constant returns (uint remaining);\n    function transfer(address to, uint tokens) public returns (bool success);\n    function approve(address spender, uint tokens) public returns (bool success);\n    function transferFrom(address from, address to, uint tokens) public returns (bool success);\n}",
  "sourcePath": "/Users/chikeichan/Projects/dml/marketplace-prototype/src/solidity/contracts/DmlMarketplace.sol",
  "compiler": {
    "name": "solc",
    "version": "0.4.22+commit.4cb486ee.Emscripten.clang"
  },
  "schemaVersion": "2.0.0",
  "updatedAt": "2018-04-22T02:48:47.277Z"
}