{
  "contractName": "DmlMarketplace",
  "abi": [
    {
      "constant": true,
      "inputs": [
        {
          "name": "",
          "type": "address"
        },
        {
          "name": "",
          "type": "bytes32"
        }
      ],
      "name": "hasPurchased",
      "outputs": [
        {
          "name": "",
          "type": "bool"
        }
      ],
      "payable": false,
      "stateMutability": "view",
      "type": "function"
    },
    {
      "constant": true,
      "inputs": [],
      "name": "owner",
      "outputs": [
        {
          "name": "",
          "type": "address"
        }
      ],
      "payable": false,
      "stateMutability": "view",
      "type": "function"
    },
    {
      "constant": true,
      "inputs": [
        {
          "name": "",
          "type": "bytes32"
        }
      ],
      "name": "totals",
      "outputs": [
        {
          "name": "",
          "type": "uint256"
        }
      ],
      "payable": false,
      "stateMutability": "view",
      "type": "function"
    },
    {
      "constant": true,
      "inputs": [],
      "name": "bountyFactory",
      "outputs": [
        {
          "name": "",
          "type": "address"
        }
      ],
      "payable": false,
      "stateMutability": "view",
      "type": "function"
    },
    {
      "constant": true,
      "inputs": [],
      "name": "token",
      "outputs": [
        {
          "name": "",
          "type": "address"
        }
      ],
      "payable": false,
      "stateMutability": "view",
      "type": "function"
    },
    {
      "inputs": [],
      "payable": false,
      "stateMutability": "nonpayable",
      "type": "constructor"
    },
    {
      "constant": true,
      "inputs": [],
      "name": "isReady",
      "outputs": [
        {
          "name": "success",
          "type": "bool"
        }
      ],
      "payable": false,
      "stateMutability": "view",
      "type": "function"
    },
    {
      "constant": false,
      "inputs": [
        {
          "name": "newTokenAddress",
          "type": "address"
        }
      ],
      "name": "init",
      "outputs": [
        {
          "name": "success",
          "type": "bool"
        }
      ],
      "payable": false,
      "stateMutability": "nonpayable",
      "type": "function"
    },
    {
      "constant": false,
      "inputs": [
        {
          "name": "algoId",
          "type": "bytes32"
        },
        {
          "name": "value",
          "type": "uint256"
        }
      ],
      "name": "buy",
      "outputs": [
        {
          "name": "success",
          "type": "bool"
        }
      ],
      "payable": false,
      "stateMutability": "nonpayable",
      "type": "function"
    },
    {
      "constant": false,
      "inputs": [
        {
          "name": "receiver",
          "type": "address"
        },
        {
          "name": "amount",
          "type": "uint256"
        }
      ],
      "name": "transferToken",
      "outputs": [],
      "payable": false,
      "stateMutability": "nonpayable",
      "type": "function"
    }
  ],
  "bytecode": "0x608060405234801561001057600080fd5b50336000806101000a81548173ffffffffffffffffffffffffffffffffffffffff021916908373ffffffffffffffffffffffffffffffffffffffff160217905550613877806100606000396000f300608060405260043610610099576000357c0100000000000000000000000000000000000000000000000000000000900463ffffffff1680630ddeb6321461009e5780631072cbea146100f157806319ab453c1461013e5780636c9f17fd146101995780638da5cb5b14610202578063a094a03114610259578063a660601414610288578063b8f75c0b146102cd578063fc0c546a14610324575b600080fd5b3480156100aa57600080fd5b506100d760048036038101908080356000191690602001909291908035906020019092919050505061037b565b604051808215151515815260200191505060405180910390f35b3480156100fd57600080fd5b5061013c600480360381019080803573ffffffffffffffffffffffffffffffffffffffff1690602001909291908035906020019092919050505061062a565b005b34801561014a57600080fd5b5061017f600480360381019080803573ffffffffffffffffffffffffffffffffffffffff16906020019092919050505061079a565b604051808215151515815260200191505060405180910390f35b3480156101a557600080fd5b506101e8600480360381019080803573ffffffffffffffffffffffffffffffffffffffff1690602001909291908035600019169060200190929190505050610959565b604051808215151515815260200191505060405180910390f35b34801561020e57600080fd5b50610217610988565b604051808273ffffffffffffffffffffffffffffffffffffffff1673ffffffffffffffffffffffffffffffffffffffff16815260200191505060405180910390f35b34801561026557600080fd5b5061026e6109ad565b604051808215151515815260200191505060405180910390f35b34801561029457600080fd5b506102b76004803603810190808035600019169060200190929190505050610a6f565b6040518082815260200191505060405180910390f35b3480156102d957600080fd5b506102e2610a87565b604051808273ffffffffffffffffffffffffffffffffffffffff1673ffffffffffffffffffffffffffffffffffffffff16815260200191505060405180910390f35b34801561033057600080fd5b50610339610aad565b604051808273ffffffffffffffffffffffffffffffffffffffff1673ffffffffffffffffffffffffffffffffffffffff16815260200191505060405180910390f35b6000806000339150600460003373ffffffffffffffffffffffffffffffffffffffff1673ffffffffffffffffffffffffffffffffffffffff1681526020019081526020016000206000866000191660001916815260200190815260200160002060009054906101000a900460ff161515156103f557600080fd5b600160009054906101000a900473ffffffffffffffffffffffffffffffffffffffff1690508073ffffffffffffffffffffffffffffffffffffffff166323b872dd8330876040518463ffffffff167c0100000000000000000000000000000000000000000000000000000000028152600401808473ffffffffffffffffffffffffffffffffffffffff1673ffffffffffffffffffffffffffffffffffffffff1681526020018373ffffffffffffffffffffffffffffffffffffffff1673ffffffffffffffffffffffffffffffffffffffff1681526020018281526020019350505050602060405180830381600087803b1580156104f157600080fd5b505af1158015610505573d6000803e3d6000fd5b505050506040513d602081101561051b57600080fd5b8101908080519060200190929190505050151561053757600080fd5b6001600460008473ffffffffffffffffffffffffffffffffffffffff1673ffffffffffffffffffffffffffffffffffffffff1681526020019081526020016000206000876000191660001916815260200190815260200160002060006101000a81548160ff02191690831515021790555060016003600087600019166000191681526020019081526020016000205410156105f25760016003600087600019166000191681526020019081526020016000208190555061061e565b600360008660001916600019168152602001908152602001600020600081548092919060010191905055505b60019250505092915050565b60008060009054906101000a900473ffffffffffffffffffffffffffffffffffffffff1673ffffffffffffffffffffffffffffffffffffffff163373ffffffffffffffffffffffffffffffffffffffff1614151561068757600080fd5b600160009054906101000a900473ffffffffffffffffffffffffffffffffffffffff1690508073ffffffffffffffffffffffffffffffffffffffff1663a9059cbb84846040518363ffffffff167c0100000000000000000000000000000000000000000000000000000000028152600401808373ffffffffffffffffffffffffffffffffffffffff1673ffffffffffffffffffffffffffffffffffffffff16815260200182815260200192505050602060405180830381600087803b15801561074f57600080fd5b505af1158015610763573d6000803e3d6000fd5b505050506040513d602081101561077957600080fd5b8101908080519060200190929190505050151561079557600080fd5b505050565b6000806000809054906101000a900473ffffffffffffffffffffffffffffffffffffffff1673ffffffffffffffffffffffffffffffffffffffff163373ffffffffffffffffffffffffffffffffffffffff161415156107f857600080fd5b82600160006101000a81548173ffffffffffffffffffffffffffffffffffffffff021916908373ffffffffffffffffffffffffffffffffffffffff1602179055506000809054906101000a900473ffffffffffffffffffffffffffffffffffffffff16600160009054906101000a900473ffffffffffffffffffffffffffffffffffffffff16610886610ad3565b808373ffffffffffffffffffffffffffffffffffffffff1673ffffffffffffffffffffffffffffffffffffffff1681526020018273ffffffffffffffffffffffffffffffffffffffff1673ffffffffffffffffffffffffffffffffffffffff16815260200192505050604051809103906000f08015801561090b573d6000803e3d6000fd5b50905080600260006101000a81548173ffffffffffffffffffffffffffffffffffffffff021916908373ffffffffffffffffffffffffffffffffffffffff1602179055506001915050919050565b60046020528160005260406000206020528060005260406000206000915091509054906101000a900460ff1681565b6000809054906101000a900473ffffffffffffffffffffffffffffffffffffffff1681565b60008073ffffffffffffffffffffffffffffffffffffffff16600160009054906101000a900473ffffffffffffffffffffffffffffffffffffffff1673ffffffffffffffffffffffffffffffffffffffff161480610a595750600073ffffffffffffffffffffffffffffffffffffffff16600260009054906101000a900473ffffffffffffffffffffffffffffffffffffffff1673ffffffffffffffffffffffffffffffffffffffff16145b15610a675760009050610a6c565b600190505b90565b60036020528060005260406000206000915090505481565b600260009054906101000a900473ffffffffffffffffffffffffffffffffffffffff1681565b600160009054906101000a900473ffffffffffffffffffffffffffffffffffffffff1681565b604051612d6880610ae4833901905600608060405234801561001057600080fd5b50604051604080612d688339810180604052810190808051906020019092919080519060200190929190505050336000806101000a81548173ffffffffffffffffffffffffffffffffffffffff021916908373ffffffffffffffffffffffffffffffffffffffff16021790555081600160006101000a81548173ffffffffffffffffffffffffffffffffffffffff021916908373ffffffffffffffffffffffffffffffffffffffff16021790555080600260006101000a81548173ffffffffffffffffffffffffffffffffffffffff021916908373ffffffffffffffffffffffffffffffffffffffff1602179055505050612c58806101106000396000f3006080604052600436106100af576000357c0100000000000000000000000000000000000000000000000000000000900463ffffffff16806302ef3844146100b45780635502be831461014c5780635792a655146101e45780638da5cb5b146102715780639ee0933f146102c8578063ab643c071461030b578063abc8c7af14610377578063d992aa70146103ce578063e0dcebf51461047a578063f3cc302714610507578063fc0c546a14610574575b600080fd5b3480156100c057600080fd5b506100f5600480360381019080803573ffffffffffffffffffffffffffffffffffffffff1690602001909291905050506105cb565b6040518080602001828103825283818151815260200191508051906020019060200280838360005b8381101561013857808201518184015260208101905061011d565b505050509050019250505060405180910390f35b34801561015857600080fd5b5061018d600480360381019080803573ffffffffffffffffffffffffffffffffffffffff169060200190929190505050610698565b6040518080602001828103825283818151815260200191508051906020019060200280838360005b838110156101d05780820151818401526020810190506101b5565b505050509050019250505060405180910390f35b3480156101f057600080fd5b5061022f600480360381019080803573ffffffffffffffffffffffffffffffffffffffff16906020019092919080359060200190929190505050610765565b604051808273ffffffffffffffffffffffffffffffffffffffff1673ffffffffffffffffffffffffffffffffffffffff16815260200191505060405180910390f35b34801561027d57600080fd5b506102866107b2565b604051808273ffffffffffffffffffffffffffffffffffffffff1673ffffffffffffffffffffffffffffffffffffffff16815260200191505060405180910390f35b3480156102d457600080fd5b50610309600480360381019080803573ffffffffffffffffffffffffffffffffffffffff1690602001909291905050506107d8565b005b34801561031757600080fd5b50610320610965565b6040518080602001828103825283818151815260200191508051906020019060200280838360005b83811015610363578082015181840152602081019050610348565b505050509050019250505060405180910390f35b34801561038357600080fd5b5061038c6109f3565b604051808273ffffffffffffffffffffffffffffffffffffffff1673ffffffffffffffffffffffffffffffffffffffff16815260200191505060405180910390f35b3480156103da57600080fd5b50610478600480360381019080803590602001908201803590602001908080601f016020809104026020016040519081016040528093929190818152602001838380828437820191505050505050919291929080359060200190820180359060200190808060200260200160405190810160405280939291908181526020018383602002808284378201915050505050509192919290505050610a18565b005b34801561048657600080fd5b506104c5600480360381019080803573ffffffffffffffffffffffffffffffffffffffff16906020019092919080359060200190929190505050610ced565b604051808273ffffffffffffffffffffffffffffffffffffffff1673ffffffffffffffffffffffffffffffffffffffff16815260200191505060405180910390f35b34801561051357600080fd5b5061053260048036038101908080359060200190929190505050610d3a565b604051808273ffffffffffffffffffffffffffffffffffffffff1673ffffffffffffffffffffffffffffffffffffffff16815260200191505060405180910390f35b34801561058057600080fd5b50610589610d78565b604051808273ffffffffffffffffffffffffffffffffffffffff1673ffffffffffffffffffffffffffffffffffffffff16815260200191505060405180910390f35b6060600460008373ffffffffffffffffffffffffffffffffffffffff1673ffffffffffffffffffffffffffffffffffffffff16815260200190815260200160002080548060200260200160405190810160405280929190818152602001828054801561068c57602002820191906000526020600020905b8160009054906101000a900473ffffffffffffffffffffffffffffffffffffffff1673ffffffffffffffffffffffffffffffffffffffff1681526020019060010190808311610642575b50505050509050919050565b6060600560008373ffffffffffffffffffffffffffffffffffffffff1673ffffffffffffffffffffffffffffffffffffffff16815260200190815260200160002080548060200260200160405190810160405280929190818152602001828054801561075957602002820191906000526020600020905b8160009054906101000a900473ffffffffffffffffffffffffffffffffffffffff1673ffffffffffffffffffffffffffffffffffffffff168152602001906001019080831161070f575b50505050509050919050565b60056020528160005260406000208181548110151561078057fe5b906000526020600020016000915091509054906101000a900473ffffffffffffffffffffffffffffffffffffffff1681565b600160009054906101000a900473ffffffffffffffffffffffffffffffffffffffff1681565b60008190508073ffffffffffffffffffffffffffffffffffffffff166328ffe6c8336040518263ffffffff167c0100000000000000000000000000000000000000000000000000000000028152600401808273ffffffffffffffffffffffffffffffffffffffff1673ffffffffffffffffffffffffffffffffffffffff168152602001915050602060405180830381600087803b15801561087857600080fd5b505af115801561088c573d6000803e3d6000fd5b505050506040513d60208110156108a257600080fd5b810190808051906020019092919050505015156108be57600080fd5b600560003373ffffffffffffffffffffffffffffffffffffffff1673ffffffffffffffffffffffffffffffffffffffff1681526020019081526020016000208290806001815401808255809150509060018203906000526020600020016000909192909190916101000a81548173ffffffffffffffffffffffffffffffffffffffff021916908373ffffffffffffffffffffffffffffffffffffffff160217905550505050565b606060038054806020026020016040519081016040528092919081815260200182805480156109e957602002820191906000526020600020905b8160009054906101000a900473ffffffffffffffffffffffffffffffffffffffff1673ffffffffffffffffffffffffffffffffffffffff168152602001906001019080831161099f575b5050505050905090565b6000809054906101000a900473ffffffffffffffffffffffffffffffffffffffff1681565b600080339150600260009054906101000a900473ffffffffffffffffffffffffffffffffffffffff1682600160009054906101000a900473ffffffffffffffffffffffffffffffffffffffff168686610a6f610d9e565b808673ffffffffffffffffffffffffffffffffffffffff1673ffffffffffffffffffffffffffffffffffffffff1681526020018573ffffffffffffffffffffffffffffffffffffffff1673ffffffffffffffffffffffffffffffffffffffff1681526020018473ffffffffffffffffffffffffffffffffffffffff1673ffffffffffffffffffffffffffffffffffffffff1681526020018060200180602001838103835285818151815260200191508051906020019080838360005b83811015610b46578082015181840152602081019050610b2b565b50505050905090810190601f168015610b735780820380516001836020036101000a031916815260200191505b50838103825284818151815260200191508051906020019060200280838360005b83811015610baf578082015181840152602081019050610b94565b50505050905001975050505050505050604051809103906000f080158015610bdb573d6000803e3d6000fd5b50905060038190806001815401808255809150509060018203906000526020600020016000909192909190916101000a81548173ffffffffffffffffffffffffffffffffffffffff021916908373ffffffffffffffffffffffffffffffffffffffff16021790555050600460003373ffffffffffffffffffffffffffffffffffffffff1673ffffffffffffffffffffffffffffffffffffffff1681526020019081526020016000208190806001815401808255809150509060018203906000526020600020016000909192909190916101000a81548173ffffffffffffffffffffffffffffffffffffffff021916908373ffffffffffffffffffffffffffffffffffffffff1602179055505050505050565b600460205281600052604060002081815481101515610d0857fe5b906000526020600020016000915091509054906101000a900473ffffffffffffffffffffffffffffffffffffffff1681565b600381815481101515610d4957fe5b906000526020600020016000915054906101000a900473ffffffffffffffffffffffffffffffffffffffff1681565b600260009054906101000a900473ffffffffffffffffffffffffffffffffffffffff1681565b604051611e7e80610daf83390190560060806040523480156200001157600080fd5b5060405162001e7e38038062001e7e8339810180604052810190808051906020019092919080519060200190929190805190602001909291908051820192919060200180518201929190505050336000806101000a81548173ffffffffffffffffffffffffffffffffffffffff021916908373ffffffffffffffffffffffffffffffffffffffff16021790555083600160006101000a81548173ffffffffffffffffffffffffffffffffffffffff021916908373ffffffffffffffffffffffffffffffffffffffff16021790555082600260006101000a81548173ffffffffffffffffffffffffffffffffffffffff021916908373ffffffffffffffffffffffffffffffffffffffff16021790555084600360006101000a81548173ffffffffffffffffffffffffffffffffffffffff021916908373ffffffffffffffffffffffffffffffffffffffff160217905550806005908051906020019062000179929190620001c3565b506000600860006101000a81548160ff021916908360078111156200019a57fe5b02179055508160049080519060200190620001b792919062000215565b505050505050620002c4565b82805482825590600052602060002090810192821562000202579160200282015b8281111562000201578251825591602001919060010190620001e4565b5b5090506200021191906200029c565b5090565b828054600181600116156101000203166002900490600052602060002090601f016020900481019282601f106200025857805160ff191683800117855562000289565b8280016001018555821562000289579182015b82811115620002885782518255916020019190600101906200026b565b5b5090506200029891906200029c565b5090565b620002c191905b80821115620002bd576000816000905550600101620002a3565b5090565b90565b611baa80620002d46000396000f30060806040526004361061013e576000357c0100000000000000000000000000000000000000000000000000000000900463ffffffff16806302d05d3f1461014357806306fdde031461019a5780631072cbea1461022a578063200d2ed214610277578063240dfd6e146102b057806328ffe6c8146102c757806335c1d34914610322578063387439041461038f5780633bc5de30146103e65780633edaf26414610563578063537a0c621461057a5780635c2ee908146105d55780637c6543031461063b5780638044c67e1461066a57806384da92a7146106e85780639f7c94aa14610769578063a22fb98b14610780578063a2fb11751461082c578063adeaa85114610899578063c45a0155146108c4578063c8b267731461091b578063eccb3a4f14610932578063fadcf13c14610973578063fc0c546a1461098a575b600080fd5b34801561014f57600080fd5b506101586109e1565b604051808273ffffffffffffffffffffffffffffffffffffffff1673ffffffffffffffffffffffffffffffffffffffff16815260200191505060405180910390f35b3480156101a657600080fd5b506101af610a07565b6040518080602001828103825283818151815260200191508051906020019080838360005b838110156101ef5780820151818401526020810190506101d4565b50505050905090810190601f16801561021c5780820380516001836020036101000a031916815260200191505b509250505060405180910390f35b34801561023657600080fd5b50610275600480360381019080803573ffffffffffffffffffffffffffffffffffffffff16906020019092919080359060200190929190505050610aa5565b005b34801561028357600080fd5b5061028c610c16565b6040518082600781111561029c57fe5b60ff16815260200191505060405180910390f35b3480156102bc57600080fd5b506102c5610c29565b005b3480156102d357600080fd5b50610308600480360381019080803573ffffffffffffffffffffffffffffffffffffffff169060200190929190505050610c6a565b604051808215151515815260200191505060405180910390f35b34801561032e57600080fd5b5061034d60048036038101908080359060200190929190505050610dce565b604051808273ffffffffffffffffffffffffffffffffffffffff1673ffffffffffffffffffffffffffffffffffffffff16815260200191505060405180910390f35b34801561039b57600080fd5b506103a4610e0c565b604051808273ffffffffffffffffffffffffffffffffffffffff1673ffffffffffffffffffffffffffffffffffffffff16815260200191505060405180910390f35b3480156103f257600080fd5b506103fb610e32565b604051808060200180602001806020018060200186600781111561041b57fe5b60ff16815260200185810385528a818151815260200191508051906020019080838360005b8381101561045b578082015181840152602081019050610440565b50505050905090810190601f1680156104885780820380516001836020036101000a031916815260200191505b50858103845289818151815260200191508051906020019060200280838360005b838110156104c45780820151818401526020810190506104a9565b50505050905001858103835288818151815260200191508051906020019060200280838360005b838110156105065780820151818401526020810190506104eb565b50505050905001858103825287818151815260200191508051906020019060200280838360005b8381101561054857808201518184015260208101905061052d565b50505050905001995050505050505050505060405180910390f35b34801561056f57600080fd5b50610578611061565b005b34801561058657600080fd5b506105bb600480360381019080803573ffffffffffffffffffffffffffffffffffffffff1690602001909291905050506110a2565b604051808215151515815260200191505060405180910390f35b3480156105e157600080fd5b50610639600480360381019080803590602001908201803590602001908080602002602001604051908101604052809392919081815260200183836020028082843782019150505050505091929192905050506110c2565b005b34801561064757600080fd5b506106506111d8565b604051808215151515815260200191505060405180910390f35b34801561067657600080fd5b506106ce600480360381019080803590602001908201803590602001908080602002602001604051908101604052809392919081815260200183836020028082843782019150505050505091929192905050506112f3565b604051808215151515815260200191505060405180910390f35b3480156106f457600080fd5b5061074f600480360381019080803590602001908201803590602001908080601f01602080910402602001604051908101604052809392919081815260200183838082843782019150505050505091929192905050506113c9565b604051808215151515815260200191505060405180910390f35b34801561077557600080fd5b5061077e61149f565b005b34801561078c57600080fd5b5061082a600480360381019080803590602001908201803590602001908080601f016020809104026020016040519081016040528093929190818152602001838380828437820191505050505050919291929080359060200190820180359060200190808060200260200160405190810160405280939291908181526020018383602002808284378201915050505050509192919290505050611743565b005b34801561083857600080fd5b506108576004803603810190808035906020019092919050505061176f565b604051808273ffffffffffffffffffffffffffffffffffffffff1673ffffffffffffffffffffffffffffffffffffffff16815260200191505060405180910390f35b3480156108a557600080fd5b506108ae6117ad565b6040518082815260200191505060405180910390f35b3480156108d057600080fd5b506108d96117fa565b604051808273ffffffffffffffffffffffffffffffffffffffff1673ffffffffffffffffffffffffffffffffffffffff16815260200191505060405180910390f35b34801561092757600080fd5b5061093061181f565b005b34801561093e57600080fd5b5061095d60048036038101908080359060200190929190505050611853565b6040518082815260200191505060405180910390f35b34801561097f57600080fd5b50610988611876565b005b34801561099657600080fd5b5061099f6118b7565b604051808273ffffffffffffffffffffffffffffffffffffffff1673ffffffffffffffffffffffffffffffffffffffff16815260200191505060405180910390f35b600160009054906101000a900473ffffffffffffffffffffffffffffffffffffffff1681565b60048054600181600116156101000203166002900480601f016020809104026020016040519081016040528092919081815260200182805460018160011615610100020316600290048015610a9d5780601f10610a7257610100808354040283529160200191610a9d565b820191906000526020600020905b815481529060010190602001808311610a8057829003601f168201915b505050505081565b6000600260009054906101000a900473ffffffffffffffffffffffffffffffffffffffff1673ffffffffffffffffffffffffffffffffffffffff163373ffffffffffffffffffffffffffffffffffffffff16141515610b0357600080fd5b600360009054906101000a900473ffffffffffffffffffffffffffffffffffffffff1690508073ffffffffffffffffffffffffffffffffffffffff1663a9059cbb84846040518363ffffffff167c0100000000000000000000000000000000000000000000000000000000028152600401808373ffffffffffffffffffffffffffffffffffffffff1673ffffffffffffffffffffffffffffffffffffffff16815260200182815260200192505050602060405180830381600087803b158015610bcb57600080fd5b505af1158015610bdf573d6000803e3d6000fd5b505050506040513d6020811015610bf557600080fd5b81019080805190602001909291905050501515610c1157600080fd5b505050565b600860009054906101000a900460ff1681565b60026007811115610c3657fe5b600860009054906101000a900460ff166007811115610c5157fe5b141515610c5d57600080fd5b610c6760036118dd565b50565b600060026007811115610c7957fe5b600860009054906101000a900460ff166007811115610c9457fe5b141515610ca45760009050610dc9565b60011515600960008473ffffffffffffffffffffffffffffffffffffffff1673ffffffffffffffffffffffffffffffffffffffff16815260200190815260200160002060009054906101000a900460ff1615151415610d065760009050610dc9565b60078290806001815401808255809150509060018203906000526020600020016000909192909190916101000a81548173ffffffffffffffffffffffffffffffffffffffff021916908373ffffffffffffffffffffffffffffffffffffffff160217905550506001600960008473ffffffffffffffffffffffffffffffffffffffff1673ffffffffffffffffffffffffffffffffffffffff16815260200190815260200160002060006101000a81548160ff021916908315150217905550600190505b919050565b600781815481101515610ddd57fe5b906000526020600020016000915054906101000a900473ffffffffffffffffffffffffffffffffffffffff1681565b600260009054906101000a900473ffffffffffffffffffffffffffffffffffffffff1681565b60608060608060006004600560066007600860009054906101000a900460ff16848054600181600116156101000203166002900480601f016020809104026020016040519081016040528092919081815260200182805460018160011615610100020316600290048015610ee75780601f10610ebc57610100808354040283529160200191610ee7565b820191906000526020600020905b815481529060010190602001808311610eca57829003601f168201915b5050505050945083805480602002602001604051908101604052809291908181526020018280548015610f3957602002820191906000526020600020905b815481526020019060010190808311610f25575b5050505050935082805480602002602001604051908101604052809291908181526020018280548015610fc157602002820191906000526020600020905b8160009054906101000a900473ffffffffffffffffffffffffffffffffffffffff1673ffffffffffffffffffffffffffffffffffffffff1681526020019060010190808311610f77575b505050505092508180548060200260200160405190810160405280929190818152602001828054801561104957602002820191906000526020600020905b8160009054906101000a900473ffffffffffffffffffffffffffffffffffffffff1673ffffffffffffffffffffffffffffffffffffffff1681526020019060010190808311610fff575b50505050509150945094509450945094509091929394565b6004600781111561106e57fe5b600860009054906101000a900460ff16600781111561108957fe5b14151561109557600080fd5b61109f60056118dd565b50565b60096020528060005260406000206000915054906101000a900460ff1681565b600260009054906101000a900473ffffffffffffffffffffffffffffffffffffffff1673ffffffffffffffffffffffffffffffffffffffff163373ffffffffffffffffffffffffffffffffffffffff16148061116b5750600160009054906101000a900473ffffffffffffffffffffffffffffffffffffffff1673ffffffffffffffffffffffffffffffffffffffff163373ffffffffffffffffffffffffffffffffffffffff16145b151561117657600080fd5b6005600781111561118357fe5b600860009054906101000a900460ff16600781111561119e57fe5b1415156111aa57600080fd5b60058054905081511415156111be57600080fd5b80600690805190602001906111d49291906119bf565b5050565b600080600360009054906101000a900473ffffffffffffffffffffffffffffffffffffffff1690508073ffffffffffffffffffffffffffffffffffffffff166370a08231306040518263ffffffff167c0100000000000000000000000000000000000000000000000000000000028152600401808273ffffffffffffffffffffffffffffffffffffffff1673ffffffffffffffffffffffffffffffffffffffff168152602001915050602060405180830381600087803b15801561129b57600080fd5b505af11580156112af573d6000803e3d6000fd5b505050506040513d60208110156112c557600080fd5b81019080805190602001909291905050506112de6117ad565b111515156112eb57600080fd5b600191505090565b6000600260009054906101000a900473ffffffffffffffffffffffffffffffffffffffff1673ffffffffffffffffffffffffffffffffffffffff163373ffffffffffffffffffffffffffffffffffffffff16148061139e5750600160009054906101000a900473ffffffffffffffffffffffffffffffffffffffff1673ffffffffffffffffffffffffffffffffffffffff163373ffffffffffffffffffffffffffffffffffffffff16145b15156113a957600080fd5b81600590805190602001906113bf929190611a49565b5060019050919050565b6000600260009054906101000a900473ffffffffffffffffffffffffffffffffffffffff1673ffffffffffffffffffffffffffffffffffffffff163373ffffffffffffffffffffffffffffffffffffffff1614806114745750600160009054906101000a900473ffffffffffffffffffffffffffffffffffffffff1673ffffffffffffffffffffffffffffffffffffffff163373ffffffffffffffffffffffffffffffffffffffff16145b151561147f57600080fd5b8160049080519060200190611495929190611a96565b5060019050919050565b600080600260009054906101000a900473ffffffffffffffffffffffffffffffffffffffff1673ffffffffffffffffffffffffffffffffffffffff163373ffffffffffffffffffffffffffffffffffffffff16148061154b5750600160009054906101000a900473ffffffffffffffffffffffffffffffffffffffff1673ffffffffffffffffffffffffffffffffffffffff163373ffffffffffffffffffffffffffffffffffffffff16145b151561155657600080fd5b600360009054906101000a900473ffffffffffffffffffffffffffffffffffffffff1691506115836111d8565b151561158e57600080fd5b6005805490506006805490501415156115a657600080fd5b600560078111156115b357fe5b600860009054906101000a900460ff1660078111156115ce57fe5b1415156115da57600080fd5b600090505b600580549050811015611734578173ffffffffffffffffffffffffffffffffffffffff1663a9059cbb60068381548110151561161757fe5b9060005260206000200160009054906101000a900473ffffffffffffffffffffffffffffffffffffffff1660058481548110151561165157fe5b90600052602060002001546040518363ffffffff167c0100000000000000000000000000000000000000000000000000000000028152600401808373ffffffffffffffffffffffffffffffffffffffff1673ffffffffffffffffffffffffffffffffffffffff16815260200182815260200192505050602060405180830381600087803b1580156116e157600080fd5b505af11580156116f5573d6000803e3d6000fd5b505050506040513d602081101561170b57600080fd5b8101908080519060200190929190505050151561172757600080fd5b80806001019150506115df565b61173e60066118dd565b505050565b61174c826113c9565b151561175757600080fd5b611760816112f3565b151561176b57600080fd5b5050565b60068181548110151561177e57fe5b906000526020600020016000915054906101000a900473ffffffffffffffffffffffffffffffffffffffff1681565b6000806000809150600090505b6005805490508110156117f2576005818154811015156117d657fe5b90600052602060002001548201915080806001019150506117ba565b819250505090565b6000809054906101000a900473ffffffffffffffffffffffffffffffffffffffff1681565b600060058054905011151561183357600080fd5b61183b6111d8565b151561184657600080fd5b61185060026118dd565b50565b60058181548110151561186257fe5b906000526020600020016000915090505481565b6002600781111561188357fe5b600860009054906101000a900460ff16600781111561189e57fe5b1415156118aa57600080fd5b6118b460046118dd565b50565b600360009054906101000a900473ffffffffffffffffffffffffffffffffffffffff1681565b6000600260009054906101000a900473ffffffffffffffffffffffffffffffffffffffff1673ffffffffffffffffffffffffffffffffffffffff163373ffffffffffffffffffffffffffffffffffffffff1614806119885750600160009054906101000a900473ffffffffffffffffffffffffffffffffffffffff1673ffffffffffffffffffffffffffffffffffffffff163373ffffffffffffffffffffffffffffffffffffffff16145b151561199357600080fd5b81600860006101000a81548160ff021916908360078111156119b157fe5b021790555060019050919050565b828054828255906000526020600020908101928215611a38579160200282015b82811115611a375782518260006101000a81548173ffffffffffffffffffffffffffffffffffffffff021916908373ffffffffffffffffffffffffffffffffffffffff160217905550916020019190600101906119df565b5b509050611a459190611b16565b5090565b828054828255906000526020600020908101928215611a85579160200282015b82811115611a84578251825591602001919060010190611a69565b5b509050611a929190611b59565b5090565b828054600181600116156101000203166002900490600052602060002090601f016020900481019282601f10611ad757805160ff1916838001178555611b05565b82800160010185558215611b05579182015b82811115611b04578251825591602001919060010190611ae9565b5b509050611b129190611b59565b5090565b611b5691905b80821115611b5257600081816101000a81549073ffffffffffffffffffffffffffffffffffffffff021916905550600101611b1c565b5090565b90565b611b7b91905b80821115611b77576000816000905550600101611b5f565b5090565b905600a165627a7a72305820c9cee944d8db275439fd5d3b1758ee615657aad2860dbf6b39ceb2c07945ded90029a165627a7a723058201b6fb9cdae5248c7f227207090b864d2329a344017ddfd22a199daec5c4219270029a165627a7a72305820aca38ca6966149b345ea4136218dc52fc4d2d6344614bddb2480e78a262a7db80029",
  "source": "pragma solidity ^0.4.22;\n\ncontract DmlMarketplace {\n    // Public Variables\n    address public owner;\n    address public token;\n    \n    // bountyFactory address\n    DmlBountyFactory public bountyFactory;\n    \n    \n    mapping(bytes32 => uint) public totals;\n    mapping(address => mapping(bytes32 => bool)) public hasPurchased;\n    \n    constructor() public {\n        owner = msg.sender;\n    }\n    \n    function isReady() view public returns (bool success) {\n        if (token == address(0) || bountyFactory == address(0)) {\n            return false;\n        }\n\n        return true;\n    }\n    \n    function init (address newTokenAddress) public returns (bool success) {\n        require(msg.sender == owner);\n        token = newTokenAddress;\n        DmlBountyFactory f = new DmlBountyFactory(owner, token);\n        bountyFactory = f;\n        return true;\n    }\n    \n    function buy(bytes32 algoId, uint value) public returns (bool success) {\n        address sender = msg.sender;\n        \n        require(!hasPurchased[msg.sender][algoId]);\n\n        ERC20Interface c = ERC20Interface(token);\n        \n        require(c.transferFrom(sender, address(this), value));\n\n        hasPurchased[sender][algoId] = true;\n        \n        if (totals[algoId] < 1) {\n            totals[algoId] = 1;\n        } else {\n            totals[algoId]++;\n        }\n        \n        return true;\n    }\n    \n    function transferToken (address receiver, uint amount) public {\n        require(msg.sender == owner);\n        \n        ERC20Interface c = ERC20Interface(token);\n        require(c.transfer(receiver, amount));\n    }\n}\n\ncontract DmlBountyFactory {\n    address public marketplace;\n    address public owner;\n    address public token;\n    address[] public allBountyAddresses;\n    mapping(address => address[]) public bountyAddressByCreator;\n    mapping(address => address[]) public bountyAddressByParticipant;\n    \n    constructor(address ownerAddress, address tokenAddress) public {\n        marketplace = msg.sender;\n        owner = ownerAddress;\n        token = tokenAddress;\n    }\n\n    function getAllBounties() view public returns (address[] bounties) {\n        return allBountyAddresses;\n    }\n\n    function getBountiesByCreator(address creatorAddress) view public returns (address[] bounties) {\n        return bountyAddressByCreator[creatorAddress];\n    }\n\n    function getBountiesByParticipant(address participantAddress) view public returns (address[] bounties) {\n        return bountyAddressByParticipant[participantAddress];\n    }\n    \n    function createBounty(string name, uint[] prizes) public {\n        address creator = msg.sender;\n        address newBounty = new Bounty(token, creator, owner, name, prizes);\n        allBountyAddresses.push(newBounty);\n        bountyAddressByCreator[msg.sender].push(newBounty);\n    }\n    \n    function joinBounty(address bountyAddress) public {\n        Bounty b = Bounty(bountyAddress);\n        \n        require(b.join(msg.sender));\n        \n        bountyAddressByParticipant[msg.sender].push(bountyAddress);\n    }\n}\n\ncontract Bounty {\n    // contract addresses\n    address public factory;\n    \n    // public constants\n    address public creator;\n    address public moderator;\n    address public token;\n\n    // state variables\n    string public name;\n    uint[] public prizes;\n    address[] public winners;\n    address[] public participants;\n    Status public status;\n    mapping(address => bool) public participantsMap;\n\n    enum Status {\n        Initialized,\n        ReadyForEnrollment,\n        EnrollmentStart,\n        EnrollmentEnd,\n        BountyStart,\n        BountyEnd,\n        Completed,\n        Paused\n    }\n    \n    constructor(address tokenAddress, address creatorAddress, address ownerAddress, string initName, uint[] initPrizes) public {\n        factory = msg.sender;\n        creator = creatorAddress;\n        moderator = ownerAddress;\n        token = tokenAddress;\n        prizes = initPrizes;\n        status = Status.Initialized;\n        name = initName;\n    }\n    \n    function isFunded() public view returns (bool success) {\n        ERC20Interface c = ERC20Interface(token);\n        require(getTotalPrize() <= c.balanceOf(address(this)));\n        return true;\n    }\n\n    function getData() public view returns (string retName, uint[] retPrizes, address[] retWinenrs, address[] retParticipants, Status retStatus) {\n        return (name, prizes, winners, participants, status);\n    }\n    \n    function join(address participantAddress) public returns (bool success) {\n        if (status != Status.EnrollmentStart) {\n            return false;\n        }\n        \n        if (participantsMap[participantAddress] == true) {\n            return false;\n        }\n        \n        participants.push(participantAddress);\n        participantsMap[participantAddress] = true;\n        \n        return true;\n    }\n\n    function updateBounty(string newName, uint[] newPrizes) public {\n        require(updateName(newName));\n        require(updatePrizes(newPrizes));\n    }\n\n    function updateName(string newName) public returns (bool success) {\n        require(msg.sender == moderator || msg.sender == creator);\n        name = newName;\n        return true;\n    }\n    \n    function updatePrizes(uint[] newPrizes) public returns (bool success) {\n        require(msg.sender == moderator || msg.sender == creator);\n        prizes = newPrizes;\n        return true;\n    }\n\n    function setStatus(Status newStatus) private returns (bool success) {\n        require(msg.sender == moderator || msg.sender == creator);\n        status = newStatus;\n        return true;\n    }\n    \n    function startEnrollment() public {\n        require(prizes.length > 0);\n        require(isFunded());\n        setStatus(Status.EnrollmentStart);\n    }\n    \n    function stopEnrollment() public {\n        require(status == Status.EnrollmentStart);\n        setStatus(Status.EnrollmentEnd);\n    }\n    \n    function startBounty() public {\n        require(status == Status.EnrollmentStart);\n        setStatus(Status.BountyStart);\n    }\n    \n    function stopBounty() public {\n        require(status == Status.BountyStart);\n        setStatus(Status.BountyEnd);\n    }\n\n    function updateWinners(address[] newWinners) public {\n        require(msg.sender == moderator || msg.sender == creator);\n        require(status == Status.BountyEnd);\n        require(newWinners.length == prizes.length);\n        winners = newWinners;\n    }\n\n    function payoutWinners() public {\n        require(msg.sender == moderator || msg.sender == creator);\n        ERC20Interface c = ERC20Interface(token);\n        require(isFunded());\n        require(winners.length == prizes.length);\n        require(status == Status.BountyEnd);\n\n        for (uint i = 0; i < prizes.length; i++) {\n            require(c.transfer(winners[i], prizes[i]));\n        }\n        \n        setStatus(Status.Completed);\n    }\n    \n    function getTotalPrize() public constant returns (uint total) {\n        uint t = 0;\n        for (uint i = 0; i < prizes.length; i++) {\n            t = t + prizes[i];\n        }\n        return t;\n    }\n\n    function transferToken (address receiver, uint amount) public {\n        require(msg.sender == moderator);\n        ERC20Interface c = ERC20Interface(token);\n        require(c.transfer(receiver, amount));\n    }\n    \n}\n\ncontract ERC20Interface {\n    function totalSupply() public constant returns (uint);\n    function balanceOf(address tokenOwner) public constant returns (uint balance);\n    function allowance(address tokenOwner, address spender) public constant returns (uint remaining);\n    function transfer(address to, uint tokens) public returns (bool success);\n    function approve(address spender, uint tokens) public returns (bool success);\n    function transferFrom(address from, address to, uint tokens) public returns (bool success);\n}",
  "sourcePath": "/Users/chikeichan/Projects/dml/marketplace-prototype/src/solidity/contracts/DmlMarketplace.sol",
  "compiler": {
    "name": "solc",
    "version": "0.4.22+commit.4cb486ee.Emscripten.clang"
  },
  "schemaVersion": "2.0.0",
  "updatedAt": "2018-04-20T02:46:55.912Z"
}